:10000000000002201920010001200100032001004E
:100010000520010007200100092001000000000068
:100020000000000000000000000000000B200100A4
:100030000D200100000000000F2001001120010030
:100040001320010013200100AD270100914401009D
:10005000A9440100132001002D37010013200100E5
:1000600013200100132001001320010013200100C0
:1000700013200100132001001320010013200100B0
:1000800013200100756101001320010013200100FD
:10009000B5610100132001001320010013200100AD
:1000A0001320010013200100132001001320010080
:1000B00013200100132001000000000000000000D8
:1000C000132001001320010013200100B5290100B5
:1000D0001320010013200100132001001320010050
:1000E00013200100000000000000000000000000DC
:1000F000000000001320010000000000CD290100D5
:1001000000000000000000000000000000000000EF
:1001100000000000000000000000000000000000DF
:1001200000000000000000000000000000000000CF
:1001300000000000000000000000000000000000BF
:1001400000000000000000000000000000000000AF
:10015000000000000000000000000000000000009F
:10016000000000000000000000000000000000008F
:10017000000000000000000000000000000000007F
:10018000000000000000000000000000000000006F
:10019000000000000000000000000000000000005F
:1001A000000000000000000000000000000000004F
:1001B000000000000000000000000000000000003F
:1001C000000000000000000000000000000000002F
:1001D000000000000000000000000000000000001F
:1001E000000000000000000000000000000000000F
:1001F00000000000000000000000000000000000FF
:020000021000EC
:10200000FEE7FEE7FEE7FEE7FEE7FEE7FEE7FEE7A8
:10201000FEE7FEE700F002B8FFF7FCBF0F484FF005
:102020000701884385460E4880470E48016841F401
:1020300070010160BFF34F8FBFF36F8F00F01AB8CC
:1020400009480A490A4A884207D0521A05D003783B
:1020500001300B700131013AF9D1704700000220C4
:10206000F125010088ED00E08870010000000020EB
:1020700000000020354936480A1A02D00722914351
:102080008D46344934480A1A06D00722914381F319
:102090000988022282F3148830483149314A00F01D
:1020A00044F831483149324A00F03FF8314832496A
:1020B000324A00F03AF832483249334A00F035F8F3
:1020C00032483349334A00F030F833483349344A10
:1020D00000F02BF833483449344A00F026F83448ED
:1020E0003449002200F02CF833483449002200F033
:1020F00027F833483349091A082902DB0022026015
:102100004160314A90471F481F49884205D0026804
:10211000043003B4904703BCF7E700208646EC4642
:1021200000200021294A9047FEE7884207D0521A32
:1021300005D0037801300B700131013AF9D17047B5
:10214000884202D002700130FAE770470000022096
:1021500000E0012000000220000002203878010089
:10216000000000201C000020D0210100D02101002F
:1021700040700100387801000000002000000020BD
:10218000887001008870010088700100887001006B
:10219000887001008870010088700100887001005B
:1021A00036780100547801001C0000201C0000203B
:1021B0001C000020E0070020E0070020E0070020CE
:1021C000F4070020F4270020412001005D6F01008A
:1021D00082B00190019B1B681F2B02D84FF0A043D7
:1021E00006E0019B1B6803F01F02019B1A60024B73
:1021F000184602B0704700BF0003005000B585B01C
:102200000190084611461A4603468DF803300B46E6
:102210008DF8023013468DF8013001AB1846FFF7F8
:10222000D7FF03909DF803209DF802305B001A430E
:102230009DF801309B001A439DF818301B0242EABA
:1022400003019DF81C301B04019A1943039B02F5FE
:10225000E07243F8221000BF05B05DF804FB00B542
:1022600085B00390002301930023009300230122F3
:1022700001210398FFF7C2FF00BF05B05DF804FB22
:1022800000B585B003900B468DF80B309DF80B30F0
:102290000022019200220092002200210398FFF701
:1022A000ADFF00BF05B05DF804FB00B585B001903F
:1022B00001AB1846FFF78CFF0390019B012202FA45
:1022C00003F31946039800F02AF800BF05B05DF843
:1022D00004FB00B585B0019001AB1846FFF778FF0D
:1022E0000390019B012202FA03F31946039800F0C0
:1022F00020F800BF05B05DF804FB00B583B0019085
:102300000091009B002B03D10198FFF7E2FF02E050
:102310000198FFF7CAFF00BF03B05DF804FB82B06D
:1023200001900091019B009AC3F8082500BF02B0FC
:10233000704782B001900091019B009AC3F80C2570
:1023400000BF02B07047000000B583B00190064A9C
:10235000019B13441B7801211846FFF7CEFF00BFF5
:1023600003B05DF804FB00BF8870010000B583B0C6
:102370000023019305E00198FFF7E6FF019B01337D
:102380000193019B032BF6D900BF00BF03B05DF89A
:1023900004FB000000B583B00023019309E0094A63
:1023A000019B13441B781846FFF759FF019B01332B
:1023B0000193019B032BF2D9FFF7D8FF00BF03B0B5
:1023C0005DF804FB8870010000B583B00023019321
:1023D00007E0022303211846FFF752FF019B013358
:1023E0000193019B002BF4D000BF00BF03B05DF848
:1023F00004FB00B583B00190019B03F00103002BA7
:1024000001D0FFF7C7FF019B03F00203002B01D0AF
:10241000FFF7DAFF00BF03B05DF804FBBFF34F8F97
:1024200000BF064BDB6803F4E0620449044B13432E
:10243000CB60BFF34F8F00BF00BFFDE700ED00E0B2
:102440000400FA0582B0114B1B680193104B1B6806
:102450000093019B0D2B14D1009B022B0DD0009BF0
:10246000022B0CD8009B002B03D0009B012B02D029
:1024700005E0012306E0012304E0012302E001233B
:1024800000E00023184602B0704700BF3001001082
:102490003401001082B0114B1B680193104B1B6874
:1024A0000093019B0D2B14D1009B022B0DD0009BA0
:1024B000022B0CD8009B002B03D0009B012B02D0D9
:1024C00005E0012306E0012304E0012302E00123EB
:1024D00000E00023184602B0704700BF3001001032
:1024E0003401001082B0114B1B680193104B1B6824
:1024F0000093019B0D2B14D1009B022B0DD0009B50
:10250000022B0CD8009B002B03D0009B012B02D088
:1025100005E0012306E0012304E0012302E001239A
:1025200000E00023184602B0704700BF30010010E1
:102530003401001082B0114B1B680193104B1B68D3
:102540000093019B0D2B14D1009B022B0DD0009BFF
:10255000022B0CD8009B002B03D0009B012B02D038
:1025600005E0002306E0002304E0012302E001234C
:1025700000E00023184602B0704700BF3001001091
:102580003401001008B5FFF7D5FF0346002B07D034
:102590004FF010234FF08042D3F80832C2F858357C
:1025A00000BF08BD00BF044BD3F80034002BFAD0A5
:1025B00000BF00BF704700BF00E0014000B583B01E
:1025C0000190054A019BC2F80435FFF7EBFF00BFFD
:1025D00003B05DF804FB00BF00E00140024B034A7A
:1025E0001A6000BF704700BF000000200090D003B9
:1025F00008B5FFF727FF0346002B0ED04FF08043AE
:102600000022C3F80C214FF080430022C3F81021B0
:102610004FF080430022C3F83825FFF73BFF034605
:10262000002B76D04FF080535E4AD3F80434C2F8C2
:1026300020354FF080535B4AD3F80834C2F8243574
:102640004FF08053574AD3F80C34C2F828354FF076
:102650008053544AD3F81034C2F82C354FF08053CD
:10266000504AD3F81434C2F830354FF080534D4AF5
:10267000D3F81834C2F834354FF08053494AD3F8B0
:102680001C34C2F840354FF08053464AD3F820340A
:10269000C2F844354FF08053424AD3F82434C2F88C
:1026A00048354FF080533F4AD3F82834C2F84C35B0
:1026B0004FF080533B4AD3F82C34C2F850354FF0DA
:1026C0008053384AD3F83034C2F854354FF0805331
:1026D000344AD3F83434C2F860354FF08053314A6D
:1026E000D3F83834C2F864354FF080532D4AD3F80C
:1026F0003C34C2F868354FF080532A4AD3F840344E
:10270000C2F86C354FF08053264AD3F84434C2F8EF
:102710007035FFF7E7FE0346002B0DD04FF08043E6
:10272000D3F8003403F00103002B05D04FF08043B1
:102730006FF00102C3F800241B4BD3F888301A4A0B
:1027400043F47003C2F88830BFF34F8F00BFBFF36C
:102750006F8F00BFFFF716FF4FF01023D3F8003242
:10276000002B05DB4FF01023D3F80432002B15DAD1
:102770000120FFF723FF4FF010231222C3F800229D
:10278000FFF710FF4FF010231222C3F80422FFF7C7
:1027900009FF0020FFF712FFFFF740FEFFF71EFFC3
:1027A00000BF08BD00C0004000ED00E008B5024BCE
:1027B0001B68984700BF08BD1C00002082B0019034
:1027C000019B044A934201D1034B00E000231846C9
:1027D00002B07047002000401C00002000B587B008
:1027E000019000910198FFF7E9FF0390039B002BF4
:1027F0001ED000238DF81730002002F0B7F8039B9D
:102800001B79002B03D001238DF8173005E0039BC3
:10281000009A1A60039B01221A71002002F0AFF89F
:102820009DF81730002B03D011230493049B02E082
:1028300000230493049B184607B05DF804FB84B0A2
:1028400001900B46ADF80230BDF80230019A1344F6
:1028500000221A60BDF80230019A13441B680393EA
:10286000039B00BF04B0704782B001900B46ADF8E7
:102870000230BDF80230019A13441B68002B14BFCC
:1028800001230023DBB2184602B0704782B00190EA
:10289000019B1B681F2B02D84FF0A04306E0019B51
:1028A0001B6803F01F02019B1A60024B184602B01E
:1028B000704700BF0003005000B585B0019001AB28
:1028C0001846FFF7E3FF0390019B012202FA03F38E
:1028D0001946039800F018F800BF05B05DF804FB36
:1028E00000B585B0019001AB1846FFF7CFFF03900C
:1028F000019B012202FA03F31946039800F00EF837
:1029000000BF05B05DF804FB82B001900091019B0F
:10291000009AC3F8082500BF02B0704782B001904A
:102920000091019B009AC3F80C2500BF02B07047CC
:1029300000B583B00190019BDB7FFF2B0ED0019B84
:102940009B7F002B05D0019BDB7F1846FFF7C8FF5C
:1029500004E0019BDB7F1846FFF7AEFF019B0022DE
:102960005A77019B00221A72019B1B68019A02F19F
:102970000800019A52681146984700BF03B05DF8FD
:1029800004FB00B583B0019000914FF48C71019865
:10299000FFF76AFF0346002B07D04FF48C710198B4
:1029A000FFF74DFF0098FFF7C3FF00BF03B05DF8CE
:1029B00004FB000008B503490348FFF7E2FF00BF2E
:1029C00008BD00BF240000200030024008B50349C4
:1029D0000348FFF7D6FF00BF08BD00BF4800002036
:1029E00000F0024082B003468DF807309DF90730B1
:1029F000002B0CDB9DF8073003F01F0205499DF901
:102A000007305B09012000FA02F241F8232000BFE1
:102A100002B0704700E100E082B0034600918DF8FB
:102A200007309DF90730002B0ADB009BDAB20C4916
:102A30009DF907305201D2B20B4483F800230BE01A
:102A4000009BDAB207499DF8073003F00F03043BFF
:102A50005201D2B20B441A7600BF02B0704700BFD9
:102A600000E100E000ED00E082B00190019B1B0B53
:102A70005BB2184602B0704700B583B003460A4601
:102A80008DF8073013468DF806309DF806209DF925
:102A9000073011461846FFF7BFFF00BF03B05DF8CF
:102AA00004FB00B583B003468DF807309DF907306D
:102AB0001846FFF797FF00BF03B05DF804FB00B5B1
:102AC00083B00346ADF80630BDF80630184600F076
:102AD00026F803461B68012B0CBF01230023DBB241
:102AE000184603B05DF804FB00B585B00346ADF8A9
:102AF0000630BDF80630184600F011F803461A46B5
:102B000000231360BDF80630184600F008F80346AD
:102B10001B680393039B00BF05B05DF804FB82B004
:102B20000346ADF80630BDF8063003F1804303F5E7
:102B3000C043184602B0704782B00190034A019B1F
:102B4000C2F8043300BF02B0704700BF006000400D
:102B500082B00190034BD3F80423019B1340184625
:102B600002B070470060004082B00190084A019BAB
:102B700003F5A27352F82330054943F00102019B8B
:102B800003F5A27341F8232000BF02B0704700BFD5
:102B90000060004084B00390029113468DF8073026
:102BA000144A039B03F5A27352F82330114923F40E
:102BB0004F3323F44073039A02F5A27241F8223096
:102BC0000C4A039B03F5A27352F82320029B1B02BD
:102BD00003F47C519DF807301B0403F440330B438E
:102BE00004491A43039B03F5A27341F8232000BF55
:102BF00004B070470060004082B00190054A019B1C
:102C000003F5A27352F823301B0A03F03F03184662
:102C100002B070470060004082B00190064A019BFC
:102C200003F5A27352F823301B0C03F00303DBB24D
:102C3000184602B0704700BF0060004084B00390A7
:102C4000029111461A460B468DF8073013468DF84F
:102C50000630184A039B03F5A27352F82330154936
:102C600023F4991323F4F853039A02F5A27241F85E
:102C70002230104A039B03F5A27352F82320029BD3
:102C80001B0203F47C519DF807301B0403F440330E
:102C900019439DF806301B0503F480130B430549C7
:102CA0001A43039B03F5A27341F8232000BF04B02D
:102CB000704700BF0060004082B00190019B1B681C
:102CC0001F2B02D84FF0A04306E0019B1B6803F0C6
:102CD0001F02019B1A60024B184602B0704700BFEA
:102CE0000003005000B585B00190084611461A4611
:102CF00003468DF803300B468DF8023013468DF8ED
:102D0000013001AB1846FFF7D7FF03909DF8032071
:102D10009DF802305B001A439DF801309B001A4376
:102D20009DF818301B0242EA03019DF81C301B0479
:102D3000019A1943039B02F5E07243F8221000BF89
:102D400005B05DF804FB00B585B003900023019346
:102D5000002300930023012201210398FFF7C2FF03
:102D600000BF05B05DF804FB00B585B003900B46CD
:102D70008DF80B309DF80B3000220192002200925A
:102D8000002200210398FFF7ADFF00BF05B05DF8FA
:102D900004FB00B585B0019001AB1846FFF78CFF2E
:102DA0000390019A039B02F5E07253F8223023F05E
:102DB00002030293019A039B02F5E072029943F821
:102DC000221000BF05B05DF804FB00B585B001908E
:102DD0000B468DF8033001AB1846FFF76DFF0390EB
:102DE000019A039B02F5E07253F82230019A23F412
:102DF0004031039B02F5E07243F82210019A039BD5
:102E000002F5E07253F822309DF8032012041146B7
:102E1000019A1943039B02F5E07243F8221000BFA8
:102E200005B05DF804FB00B585B0019001AB184614
:102E3000FFF742FF0390019B012202FA03F31946B8
:102E4000039800F04BF800BF05B05DF804FB00B537
:102E500085B0019001AB1846FFF72EFF0390019B50
:102E6000012202FA03F31946039800F041F800BF6B
:102E700005B05DF804FB00B585B0019001AB1846C4
:102E8000FFF71AFF0390039800F020F80246019B19
:102E900022FA03F303F00103184605B05DF804FBC2
:102EA00000B585B0019001AB1846FFF705FF039010
:102EB000019A039B02F5E07253F822301B0C03F0D9
:102EC0000303DBB2184605B05DF804FB82B0019045
:102ED000019BD3F81035184602B0704782B00190BC
:102EE0000091019B009AC3F8082500BF02B070470B
:102EF00082B001900091019B009AC3F80C2500BF9D
:102F000002B0704788B0039002910192164A05AB57
:102F100092E8030083E80300039B079319E0079BF3
:102F20009B0008AA134453F80C3CD3F82025019BBE
:102F30001A60079B9B0008AA134453F80C3C019AA3
:102F40001268C3F82025019B04330193079B0133CA
:102F50000793039A029B1344079A9A42DFD300BF58
:102F600000BF08B0704700BF9870010000B585B081
:102F7000019001AB1846FFF79FFE0390019B0122D1
:102F800002FA03F31A46039BC3F8202500BF05B0DD
:102F90005DF804FB84B00190019B5B090293002360
:102FA0000393029B002B03D0029B012B04D007E06C
:102FB0004FF0FF33039303E040F2FF33039300BF6E
:102FC000019B03F01F030193039A019B22FA03F371
:102FD00003F00103002B14BF01230023DBB21846CA
:102FE00004B0704784B001900091009B0393019B53
:102FF000DB080293019B03F0070301930122019B6D
:1030000002FA03F30399029A0A441278134018460D
:1030100004B0704784B001900091009B0393019B22
:10302000DB080293019B03F007030193039A029BC1
:1030300013441B785AB20121019B01FA03F35BB2DE
:10304000134359B2039A029B1344CAB21A7000BFC9
:1030500004B0704782B00190074A019B13442433A7
:1030600093F90030B3F1FF3F14BF01230023DBB21B
:10307000184602B0704700BF6C00002082B001907B
:103080000C4A019B1344243393F90030002B09DBD5
:10309000084A019B1344243393F90030072B01DCC9
:1030A000012300E0002303F00103DBB2184602B065
:1030B000704700BF6C00002082B00190064A019B5F
:1030C0001344243393F90030072BCCBF0123002392
:1030D000DBB2184602B070476C00002082B001904D
:1030E000064A019B1344243393F90030DB43DBB2DF
:1030F000DB09DBB2184602B0704700BF6C0000204D
:1031000084B00390029101928DF80330029B59B272
:103110000E4A039B134424330A461A700B49029B40
:10312000019A41F823209DF8033083F00103DBB2BC
:10313000002B08D0029B083B039A51B2034A134468
:103140000A4683F84E2000BF04B070476C00002090
:1031500082B00190044A019B13442433FE221A706A
:1031600000BF02B0704700BF6C00002082B0019029
:10317000044A019B13442433FF221A7000BF02B09B
:10318000704700BF6C00002000B583B00190044977
:103190000198FFF73FFF00BF03B05DF804FB00BFDD
:1031A000BB00002082B00190044A019B13442433E9
:1031B00093F90030184602B0704700BF6C00002041
:1031C00082B00190034A019B52F82330184602B0A6
:1031D000704700BF6C00002084B00190074A019B3B
:1031E00013444E3393F900308DF80F309DF80F30B3
:1031F00023F0C003184604B0704700BF6C000020E5
:1032000084B00190074A019B13444E3393F9003078
:103210008DF80F309DF80F309B09DBB2184604B0D3
:10322000704700BF6C00002000B589B00390029188
:1032300013468DF80730FF238DF81F309DF80730B7
:10324000002B01D0002300E0082305939DF80730F0
:10325000002B01D0082300E009230493059B06936B
:1032600014E00F4A069B52F82330B3F1FF3F0AD116
:103270009DF80730029A06990398FFF741FF069BD5
:103280008DF81F3006E0069B01330693069A049BD7
:103290009A42E6D39DF91F30184609B05DF804FB49
:1032A0006C00002082B003468DF807309DF807308F
:1032B000094A4FF0FF3142F823109DF80730072BE1
:1032C00007D99DF80730083B034A1344FF2283F8CF
:1032D0004E2000BF02B070476C00002000B583B0E4
:1032E0002D4B93F85530002B03D008230093009BFF
:1032F0004EE000238DF8073011E09DF807301846A6
:10330000FFF748FE0346002B04D09DF8073018460F
:10331000FFF72CFF9DF8073001338DF807309DF83B
:103320000730292BE9D900238DF8073009E09DF8F3
:1033300007301846FFF7B6FF9DF8073001338DF8C8
:1033400007309DF80730082BF1D9062200211348D9
:1033500003F043FE1248FFF787FB03460721184698
:10336000FFF78AFB0E48FFF77FFB03461846FFF77F
:1033700098FB4FF4BE70FFF7B7FB4FF00040FFF72C
:10338000DBFB054B012283F8552000230093009BB3
:10339000184603B05DF804FB6C000020BB00002061
:1033A00000600040044B93F85530002B14BF0123FC
:1033B0000023DBB2184670476C00002000B585B0D2
:1033C00001900091002303930198FFF743FE034609
:1033D000002B02D00823039334E0009B9B78002B42
:1033E00019D0012200210198FFF71EFF03468DF836
:1033F0000B309DF90B30B3F1FF3F09D09DF90B0065
:10340000009B1A78009B5B780199FFF717FC05E099
:103410000423039302E00198FFF79AFE039B002B1D
:1034200010D1009B5B78012B03D10198FFF7FBFCC7
:1034300002E00198FFF70BFD0198FFF784FC01986B
:10344000FFF7A2FE039B184605B05DF804FB0000E1
:1034500000B587B003900291019200230593039871
:10346000FFF73CFE0346002B02D00823059357E0EC
:10347000029B9B78C3F34003DBB21A460199039881
:10348000FFF7D2FE03468DF813309DF91330B3F1E8
:10349000FF3F43D0029B9B78C3F38003DBB283F0F2
:1034A0000103DBB2002B13D0029B9B7803F00103D6
:1034B000DBB2002B03D00398FFF76BFC05E0029B07
:1034C0005B7819460398FFF74FFC0398FFF75CFE03
:1034D000029B9B7803F00203DBB2002B08D09DF91E
:1034E0001300029B1B781A460399FFF753FB17E062
:1034F0009DF91330083B0D4A134493F94E10029B7B
:103500001B789B015AB29DF91330083B0A4351B214
:10351000064A13440A4683F84E2001E0042305932B
:10352000059B184607B05DF804FB00BF6C00002047
:1035300000B589B001900B468DF803300198FFF774
:10354000BBFD0346002B2AD00198FFF72BFE034654
:10355000083B1846FFF754FE03468DF80F309DF8E0
:103560000F30032B0BD10198FFF785FC0346002B8E
:1035700001D0032300E002238DF81F3008E09DF8FE
:103580000F30012B01D1022300E003238DF81F30FF
:103590009DF81F3019460198FFF717FC30E001989D
:1035A000FFF76CFD0346002B2AD00198FFF7FAFDC8
:1035B00003460693069B9BB240339BB29B00ADF83B
:1035C0001630069B1846FFF7CFFABDF8163018469E
:1035D000FFF78AFA9DF80330002B11D00198FFF70E
:1035E000E1FD03461846FFF7EBFD0490049B002B1A
:1035F00006D00122069B02FA03F31846FFF79CFA55
:1036000000BF09B05DF804FB00B585B00190019AD8
:1036100002210020FFF776FC002303930BE0039BBD
:103620009B00019A13441B68002B01D0012306E084
:10363000039B01330393039B012BF0D9002318460E
:1036400005B05DF804FB000000B587B001900023D1
:1036500005935BE0344A059B13444E3393F90030E5
:10366000B3F1FF3F4ED00598FFF7B6FD04900199E6
:103670000498FFF7B7FC0346002B44D00598FFF7EA
:10368000BFFD03468DF80F300498FFF709FC034691
:103690008DF80E309DF80E30022B01D1032300E08F
:1036A00002238DF80D309DF80D3019460498FFF770
:1036B0008CFB0498FFF75AFC0498FFF773FD034650
:1036C0001846FFF77DFD0290029B002B1BD09DF852
:1036D0000F30032B0FD09DF80E30022B03D19DF835
:1036E0000F30012B07D09DF80E30032B0BD19DF826
:1036F0000F30022B07D19DF80F20029B1146049832
:10370000984700E000BF059B01330593059B002B04
:10371000A0D00198FFF778FF0346002B97D100BF98
:1037200000BF07B05DF804FB6C00002000B58BB053
:103730000023089301AB00221A605A604FF4807393
:10374000ADF81A30012309930023079321E0BDF857
:103750001A301846FFF7B3F90346002B0ED009982C
:10376000FFF7F6F90346002B08D0BDF81A301846CB
:10377000FFF7BAF9089A099B13430893099B5B006A
:103780000993BDF81A300433ADF81A30079B0133A2
:103790000793079B072BDAD94FF4BE70FFF78FF919
:1037A0000346002B0DD04FF4BE70FFF79DF9089B28
:1037B00043F00043089301AB1A4602210020FFF7B3
:1037C000A1FB089BDBB2002B29D001230993002326
:1037D000079321E0099A089B1340002B16D0079805
:1037E000FFF70AFA05900798FFF716FA03468DF8D7
:1037F00013300798FFF7E4FC0390039B002B05D0E0
:103800009DF81320039B114605989847099B5B0080
:103810000993079B01330793079B072BDAD9089B72
:10382000002B03DA01AB1846FFF70EFF00BF0BB009
:103830005DF804FB82B003468DF807309DF9073030
:10384000002B0CDB9DF8073003F01F0205499DF9A2
:1038500007305B09012000FA02F241F8232000BF83
:1038600002B0704700E100E082B0034600918DF89D
:1038700007309DF90730002B0ADB009BDAB20C49B8
:103880009DF907305201D2B20B4483F800230BE0BC
:10389000009BDAB207499DF8073003F00F03043BA1
:1038A0005201D2B20B441A7600BF02B0704700BF7B
:1038B00000E100E000ED00E082B00190019B1B0BF5
:1038C0005BB2184602B0704700B583B003460A46A3
:1038D0008DF8073013468DF806309DF806209DF9C7
:1038E000073011461846FFF7BFFF00BF03B05DF871
:1038F00004FB00B583B003468DF807309DF907300F
:103900001846FFF797FF00BF03B05DF804FB82B0D5
:1039100001900B468DF803309DF80330019A134453
:1039200001221A6000BF02B0704784B001900B46BC
:10393000ADF80230BDF80230019A134400221A603B
:10394000BDF80230019A13441B680393039B00BF28
:1039500004B0704782B001900B46ADF80230BDF85C
:103960000230019A13441B68002B14BF012300236B
:10397000DBB2184602B0704782B001900091019B03
:10398000009AC3F8042300BF02B0704782B00190D0
:103990000091019B009AC3F8082300BF02B0704752
:1039A00082B00190019B0522C3F8002500BF02B040
:1039B000704782B00190019B0022C3F8002500BF30
:1039C00002B0704784B0039002910192039B029A67
:1039D000C3F80825039B019AC3F80C2500BF04B067
:1039E000704782B001900091019B009AC3F8242592
:1039F00000BF02B0704784B00190019BD3F8C4347B
:103A00000393019B039AC3F8C424039B184604B094
:103A1000704782B001900B468DF803309DF803206B
:103A2000019BC3F8882500BF02B0704782B00190A7
:103A3000019BD3F81835DBB2184602B0704782B04C
:103A400001900B468DF803309DF80320019BC3F8CD
:103A50001C2500BF02B0704782B001900091019B0D
:103A6000009AC3F8002200BF02B0704782B00190F4
:103A7000019B1B681F2B02D84FF0A04306E0019B5F
:103A80001B6803F01F02019B1A60024B184602B02C
:103A9000704700BF0003005000B585B00190084694
:103AA00011461A4603468DF803300B468DF8023056
:103AB00013468DF8013001AB1846FFF7D7FF03908E
:103AC0009DF803209DF802305B001A439DF80130F9
:103AD0009B001A439DF818301B0242EA03019DF82F
:103AE0001C301B04019A1943039B02F5E07243F852
:103AF000221000BF05B05DF804FB84B001900323E1
:103B00000393019B03F00103002B02D04FF4024307
:103B10000393019B03F00203002B02D048F2012320
:103B20000393019B03F00403002B02D048F202230D
:103B30000393039B184604B0704700B583B001900F
:103B40000091009B5A6B009B9B6A9A4207D0019898
:103B5000FFF72FFF0198FFF723FF002300E0012369
:103B6000184603B05DF804FB00B58BB005900491D6
:103B700003920293059B1B791A4613461B019B1A5D
:103B80009B00424A13440793079B93F82E30002B67
:103B900003D008230993099B74E0059B1A68059BD1
:103BA0001B7919463A4B53F8213019461046FEF757
:103BB00015FE0346002B03D011230993099B61E0F6
:103BC000079B039A1A60079B029A5A60079B002280
:103BD0009A60079B002283F82D20079B002283F820
:103BE0003120079B002283F83020049B5A7B079BDF
:103BF00083F83820049B1868002301930623009360
:103C0000032300220021FFF747FF049B586800238D
:103C1000019306230093032300220021FFF73CFFBA
:103C2000059B1B680893049B1968049B5B681A46F4
:103C30000898FFF7C7FE049B9B6819460898FFF792
:103C4000D0FE079B1B68002B15D0059B1B681846F0
:103C5000FFF732FE03461A46049B1B7B19461046AB
:103C6000FFF732FE059B1B681846FFF725FE03464B
:103C70001846FFF73EFE079B012283F82E20002303
:103C80000993099B18460BB05DF804FBC4000020A3
:103C9000CC70010000B585B00190019B1B791A46DC
:103CA00013461B019B1A9B00084A13440393019B74
:103CB0001B6802930298FFF773FE039B022283F8AE
:103CC0002E2000BF05B05DF804FB00BFC40000203B
:103CD00000B583B001900091009B5A6B009B9B6ADA
:103CE0009A420AD2009B5A6A009B5B6B13441B7872
:103CF00019460198FFF7A3FE1EE0009B93F82C30B5
:103D0000002B05D01C210198FFF701FE002314E0D1
:103D1000009B1B6A03F04003002B09D01C21019873
:103D2000FFF7F5FD009B012283F82D20002304E01E
:103D300014210198FFF7EBFD0123184603B05DF84D
:103D400004FB10B582B001900091009B5A6B009B60
:103D50009B6A9A4244D2009B5A6A009B5B6BD418C0
:103D60000198FFF763FE03462370009B5B6B5A1CB0
:103D7000009B5A63009B5A6B009B9B6A013B9A42D3
:103D80000AD1009B1B6A03F04003002B04D10221DF
:103D90000198FFF761FE1FE0009B5A6B009B9B6A36
:103DA0009A4207D1009B1B6A03F04003002B01D10C
:103DB000012316E0009B5A6B009B9B6A9A420BD131
:103DC000009B1B6A03F04003002B05D0009B0222DE
:103DD00083F82D20002304E020210198FFF797FDB0
:103DE0000123184602B010BD00B585B001900091C6
:103DF00000238DF80F304FF482710198FFF7AAFD70
:103E00000346002B07D04FF482710198FFF78DFD18
:103E100001238DF80F30009B93F82F30002B0FD02B
:103E20004FF492710198FFF780FD4FF48E71019865
:103E3000FFF77BFD4FF484710198FFF776FD78E082
:103E40004FF492710198FFF785FD0346002B0DD0CA
:103E50004FF492710198FFF768FD14210198FFF764
:103E600056FD009B012283F82F2062E04FF48E71F3
:103E70000198FFF76FFD0346002B2BD04FF48E7196
:103E80000198FFF752FD009B5B6B5A1C009B5A6325
:103E90004FF492710198FFF75DFD0346002B0DD0A2
:103EA0004FF492710198FFF740FD14210198FFF73C
:103EB0002EFD009B012283F82F203AE00099019803
:103EC000FFF706FF034683F00103DBB2002B30D07F
:103ED000002354E04FF484710198FFF73BFD034643
:103EE000002B26D04FF484710198FFF71EFD4FF48C
:103EF00092710198FFF72EFD0346002B0DD04FF471
:103F000092710198FFF711FD14210198FFF7FFFC52
:103F1000009B012283F82F200BE000990198FFF706
:103F200010FF034683F00103DBB2002B01D0002316
:103F300025E09DF80F30002B20D0009B002283F855
:103F40002D20009B93F82F3083F00103DBB2002B70
:103F500012D000990198FFF7F0FD0346002B14BF23
:103F600001230023DBB283F00103DBB203F0010382
:103F7000DAB2009B83F82F20002300E001231846CB
:103F800005B05DF804FB000000B587B0019000911A
:103F900000230593384B03934FF482710198FFF788
:103FA000C4FC4FF492710198FFF7BFFC4FF48E717F
:103FB0000198FFF7BAFC4FF484710198FFF7B5FC44
:103FC00000210198FFF748FD009B00225A63009BE7
:103FD000002283F82F2020210198FFF798FC009BF6
:103FE00093F82D30012B03D008210198FFF78FFCA7
:103FF00000990198FFF76CFE009B1B68002B0DD009
:10400000009B40F286229A60009B9B6819460198AB
:10401000FFF7B2FC2AE0039B013B0393039B002BB9
:1040200006DD00990198FFF7DFFE0346002BF2D171
:10403000009B93F82F30002B0DD00198FFF7DBFC8D
:104040000490049B002B04D00498FFF756FD0590C4
:1040500001E003230593039B002B07DC0198FFF786
:10406000A8FC0198FFF79CFC03230593059B1846C9
:1040700007B05DF804FB00BFA086010000B587B063
:1040800001900091002305933D4B03934FF48271FF
:104090000198FFF74AFC4FF492710198FFF745FC35
:1040A0004FF48E710198FFF740FC4FF48471019832
:1040B000FFF73BFC009B00225A63009B002283F821
:1040C0002F20009B9B6A012B0AD1009B1B6A03F0E7
:1040D0004003002B04D102210198FFF7BDFC03E04F
:1040E00001210198FFF7B8FC20210198FFF70FFC90
:1040F000009B93F82D30022B03D000210198FFF78D
:1041000006FC009B1B68002B0DD0009B40F2862212
:104110009A60009B9B6819460198FFF72DFC2AE0E6
:10412000039B013B0393039B002B06DD0099019841
:10413000FFF75AFE0346002BF2D1009B93F82F3075
:10414000002B0DD00198FFF756FC0490049B002B28
:1041500004D00498FFF7D1FC059001E003230593F8
:10416000039B002B07DC0198FFF723FC0198FFF766
:1041700017FC03230593059B184607B05DF804FB65
:10418000A086010030B587B00390029101920093A0
:1041900000230593029B93F82D30012B05D1019B41
:1041A0001B78012B01D108236DE0029B93F82D3081
:1041B000022B05D1019B1B78012B01D0082362E063
:1041C00032490398FFF7E2FB029B93F83030DBB2F1
:1041D000002B09D0029B9B6819460398FFF7CCFB84
:1041E00011230593059B4EE0009B03F00403002B75
:1041F0000CBF01230023DAB2029B83F83020029B1C
:10420000009A1A62029B019A03F10C0415460FCD25
:104210000FC42B682360019B5A68029B9A62019B22
:10422000DA68029B5A62019B5B7819460398FFF794
:10423000F0FB019B1B78012B17D0019B1B78002BF7
:1042400004D1009B03F02003002B01D0012300E0E8
:10425000002303F00103DAB2029B83F82C200299B9
:104260000398FFF791FE059004E002990398FFF789
:1042700005FF0590029B1B68002B03D1029B0022C7
:1042800083F83020059B184607B030BD86420400F5
:1042900000B587B003900291019200230593039B20
:1042A0001B791A4613461B019B1A9B00074A1344AD
:1042B0000493039B1868019B029A0499FFF762FF1D
:1042C0000590059B184607B05DF804FBC40000206C
:1042D00000B58BB00390019200930B468DF80B3024
:1042E00000238DF814309DF80B308DF81530009BAD
:1042F000069300230793019B0893002309939DF8DD
:104300003030002B01D0202200E0002205AB1946FE
:104310000398FFF7BDFF034618460BB05DF804FB9A
:1043200000B58BB00390019200930B468DF80B30D3
:1043300001238DF814309DF80B308DF81530009B5B
:10434000069300230793019B08930023099305AB71
:10435000002219460398FFF79BFF034618460BB04F
:104360005DF804FB30B58BB0019000910099019885
:10437000FFF73AFD0346002B40F08680009B93F840
:104380002F3083F00103DBB2002B33D0009B1B7B6B
:10439000022B03D0009B1B7B032B2BD1009B5A6A63
:1043A000009B9B699A4225D1009BDA69009B5A6267
:1043B000009B5A69009B9A62009B1B6A03F02003D2
:1043C000002B14BF01230023DAB2009B83F82C20BA
:1043D000009B002283F82D20009B1B7B032B04D124
:1043E00000990198FFF7D0FD4FE000990198FFF781
:1043F00045FE4AE0009B04AC03F10C050FCD0FC451
:104400002B682360009B93F82F30002B22D001985B
:10441000FFF7F1FA0990099B03F00203002B03D088
:1044200001238DF80C3018E0099B03F00403002BE6
:1044300003D002238DF80C300FE0099B03F0010339
:10444000002B03D003238DF80C3006E004238DF8F5
:104450000C3002E000238DF80C30009B002283F822
:104460003020009B1B6A03F00403002B04D0009B48
:1044700093F82F30002B08D0009B1B68009A5168DE
:1044800003AA1046984700E000BF0BB030BD000003
:1044900008B503490348FFF765FF00BF08BD00BF2B
:1044A000C40000200030004008B503494FF0402010
:1044B000FFF758FF00BF08BD0001002000B585B020
:1044C0000190019B002B0AD0074B43F0010303939B
:1044D000019B9B010293039B0298984700E000BF59
:1044E00005B05DF804FB00BFE070010082B00190F0
:1044F000019B1B681F2B02D84FF0A04306E0019BD5
:104500001B6803F01F02019B1A60024B184602B0A1
:10451000704700BF0003005000B585B0019001ABAB
:104520001846FFF7E3FF0390019B012202FA03F311
:104530001946039800F035F800BF05B05DF804FB9C
:1045400000B585B0019001AB1846FFF7CFFF03908F
:10455000019B012202FA03F31946039800F02BF89D
:1045600000BF05B05DF804FB00B585B0019001AB5C
:104570001846FFF7BBFF0390039800F00AF80246C5
:10458000019B22FA03F303F00103184605B05DF81E
:1045900004FB82B00190019BD3F81035184602B09D
:1045A000704782B001900091019B009AC3F80825E2
:1045B00000BF02B0704782B001900091019B009A49
:1045C000C3F80C2500BF02B0704700B585B001905C
:1045D0004FF0A042019B1B6803F5E07340F20C61B1
:1045E00042F823104FF0A042019B5B6803F5E07393
:1045F00040F20C6142F82310019B1B681846FFF73C
:104600008BFF019B5B681846FFF786FF4FF0A042C7
:10461000019B1B6803F5E07340F20D6142F8231023
:104620004FF0A042019B5B6803F5E07340F20D611F
:1046300042F823100420FFF741FF002303931EE0FC
:10464000019B5B681846FFF78FFF0346002B03D0E2
:10465000039B002B17D124E0019B1B681846FFF732
:104660006FFF0420FFF72AFF019B1B681846FFF726
:1046700053FF0420FFF722FF039B01330393039BA7
:10468000082BDDDD00E000BF019B5B681846FFF7EB
:1046900057FF0420FFF712FF019B5B681846FFF7E6
:1046A0003BFF05B05DF804FB00B589B001900091B7
:1046B000009B0793019B1B788DF80C30019B1B79A5
:1046C0008DF81030019B5B798DF81130019B9B6850
:1046D000DBB28DF81230019BDB68DBB28DF8133052
:1046E000019B1B690593019B5B690693074A079B26
:1046F00052F823300649079A51F8221003AA1046AF
:10470000984700BF09B05DF804FB00BF3C010020E2
:104710004401002000B587B00390029101920093FC
:10472000039B1B7805931249059B019A41F82320AE
:104730001049059B009A41F82320029B5B7B002BCC
:1047400002D00298FFF741FF00230493039B181D3A
:10475000019B002B01D0084A00E00022059B029932
:10476000FFF702FA0490049B184607B05DF804FBBB
:104770003C01002044010020A946010086B00390BE
:104780000291019201238DF817309DF81730204ACD
:10479000039B13601E4A029B53601D4A019B93605A
:1047A000039B44F20102934212D0039B44F20202A3
:1047B000934220D1019B164AD360154BDB681B68DE
:1047C000134A9361124BDB685B68114AD36112E0B4
:1047D000019B0F4A13610E4B1B699B680C4A536186
:1047E0000B4B1B691B680A4A9361094B1B695B6889
:1047F000074AD36100BF72B600BF00BF9DF81730F3
:10480000DBB2002BFAD162B600BF00BF06B0704722
:104810004C01002000B583B002900091019244F257
:10482000010071466A4600F003F803B000BD00BF06
:1048300030B58BB007900691059272B600BF00F0BC
:104840000BFE00BF00F038FC0346002BFAD1079B9B
:1048500044F20102934216D0079B44F202029342B3
:104860003ED1059B09932C4A2C4BD31ADB081B0421
:1048700043F00100099B5B681A46099B1B682849A5
:1048800000F0DDFB39E0059B0893234A234BD31A44
:10489000DB081B0443F00104089B9D68089B9B6890
:1048A000184600F047FF03461846089B5B68194608
:1048B000089B1B68069A02920193009103462A46C0
:1048C0001849204600F0CFFB134A144BD31ADB08DB
:1048D0001B0443F001031449184600F091FB0CE05F
:1048E0000D4A0E4BD31ADB081B0443F00103069A52
:1048F0000E49184600F092FB00BF0D4B1B6803F0F9
:104900000103002B00D000BE059A06990798FFF717
:1049100035FF00BF0BB030BD787001004070010062
:10492000E8700100047101002C7101004071010068
:10493000F0ED00E072B600BF034B1B680133024A82
:10494000136000BF704700BF6C010020064B1B685E
:10495000013B054A1360044B1B68002B01D162B672
:1049600000BF00BF704700BF6C01002000B583B0DE
:104970000190FFF7DFFF00BF03B05DF804FB00B557
:1049800083B003468DF80730FFF7E0FF00BF03B0A8
:104990005DF804FB10B487B001900091019B009A70
:1049A00053E8004F104643E8000191F0000FF7D1A3
:1049B000059404900391059B184607B05DF8044BDD
:1049C000704710B487B001900091019B009A53E8A2
:1049D000004F44EA020043E8000191F0000FF6D1D5
:1049E000059404900391049B184607B05DF8044BAE
:1049F000704710B487B001900091019B009A53E872
:104A0000004F04EA020043E8000191F0000FF6D1E4
:104A1000059404900391059B184607B05DF8044B7C
:104A2000704710B487B001900091019B009A53E841
:104A3000004F04EB020043E8000191F0000FF6D1B3
:104A4000059404900391049B184607B05DF8044B4D
:104A5000704710B487B001900091019B009A53E811
:104A6000004FA4EB020043E8000191F0000FF6D1E3
:104A7000059404900391049B184607B05DF8044B1D
:104A8000704700B583B0019001210198FFF799FFAD
:104A90000346184603B05DF804FB00B583B00190EF
:104AA00000210198FFF7A5FF0346184603B05DF803
:104AB00004FB82B001900B468DF80330019BDA684D
:104AC0009DF803300199098A01FB03F3134418464A
:104AD00002B0704782B001900091009B019AD268A9
:104AE0009B1A019A128AB3FBF2F3DBB2184602B0AA
:104AF000704700B585B00190002303930020FFF7B5
:104B000035FF019B1B681A68019B5B689A421FD99D
:104B1000019B1B681A68013A1A601B681B781946CA
:104B20000198FFF7C6FF0390019B9A68019B1B68E1
:104B30001B68D31A8DF80B30019B1B681B799DF8FD
:104B40000B209A4204D9019B1B689DF80B201A7117
:104B50000020FFF714FF039B184605B05DF804FB27
:104B600010B584B001900091009B03930020FFF7E3
:104B7000FDFE019B1B681C68621C1A60039901986A
:104B8000FFF7A8FF034623700020FFF7F8FE00BFE1
:104B900004B010BD00B583B001900091019B1B686B
:104BA0001B6800990198984700BF03B05DF804FBAB
:104BB00000B583B00190019B1B685B680198984722
:104BC00000BF03B05DF804FB00B583B00190019B0A
:104BD0001B689B680198984700BF03B05DF804FB11
:104BE00082B00190019BDB6801225A7100BF02B0C4
:104BF000704782B00190019BDB685B79184602B078
:104C0000704784B00190009100238DF80F30019B14
:104C10001B7803F00403DBB2002B24D0019B1B782C
:104C2000C3F30103DBB2012B02D0022B0CD017E03F
:104C3000009B1B68019A1288C2F38312D2B21344FC
:104C40009A1C009B1A600BE0009B1B68019A52881B
:104C5000C2F3891292B213449A1C009B1A6000BFDF
:104C600001238DF80F309DF80F30184604B07047BF
:104C700000B58BB00023ADF826303B48FFF701FFAD
:104C80003A48FFF7FEFE3A4B9B680493394B1B688A
:104C90000693049A069B134002339B00344A134444
:104CA0000433089304AB19460898FFF7AAFF03469C
:104CB000002B09D0049A069B134002339B002C4A18
:104CC000134404330893EDE700BF0023079311E07A
:104CD000049B5A1C0492069A1340079A920001A959
:104CE0000A44234902339B000B445B681360079B13
:104CF00001330793079B012BEAD99DF80430C3F3D6
:104D00000103DBB2012B10D0022B1CD1BDF80A30FD
:104D1000ADF82630BDF80630C3F389139BB20333D8
:104D20009A08049B134404930EE0BDF80A30ADF8D2
:104D30002630BDF80430C3F38313DBB21A46049B5C
:104D40001344049300E000BF0848FFF7A6FE059057
:104D5000059B002B02D0049B054A9360BDF82630CA
:104D600018460BB05DF804FB5806002054060020DE
:104D7000400200200400002000B585B00021074853
:104D8000FFF708FE0390039B0293029B83F310033B
:104D90000193019B184605B05DF804FB5C060020FA
:104DA00000B589B00390029101920093039B1B0C04
:104DB0000693FFF7E1FF0790079B1904009B5A1C1D
:104DC0000A9B1340069A0A431B4902339B000B447B
:104DD0005A60009A0A9B134002339B00164A134400
:104DE00004330593039B03F00703D9B2059A1378A4
:104DF00061F3C5031370019B03F00F03D9B2059A49
:104E0000138861F389131380029BC3F31501059A7C
:104E1000136861F39F231360059A1378012161F3EE
:104E200001031370059A13786FF38203137000BFA8
:104E300009B05DF804FB00BF4002002000BF7047CE
:104E400000B58BB00390029113468DF80730039B99
:104E50000233089301238DF81F300020FFF786FDF1
:104E60003E4B5A68029B1A603D4B1A683B4B99684F
:104E70003A4B5B68CB1A13440133099314E00121C8
:104E80003848FFF7CEFDFFF7F3FE0590059935484A
:104E9000FFF7C7FD324B1A68304B99682F4B5B68A0
:104EA000CB1A134401330993089A099B9A42E6D816
:104EB0009DF81F30002B48D0002304939DF8073045
:104EC000002B17D09DF81030012262F301038DF8FA
:104ED00010309DF8103043F004038DF81030039B20
:104EE00003F00F03DAB2BDF8103062F38913ADF8A6
:104EF000103016E09DF81030022262F301038DF8A5
:104F000010309DF8103043F004038DF81030039BEF
:104F1000C3F309039AB2BDF8123062F38F13ADF8F0
:104F200012300E4B5A680E4B1B68134002339B0025
:104F30000A4A134404330693049A069B1A60074BEB
:104F40005A68089B1344054A53600020FFF717FD79
:104F50009DF81F3018460BB05DF804FB400200209E
:104F6000040000205C06002000B58BB00590049181
:104F700003920293204B1B68079306AB012219464C
:104F80000298FFF75DFF0346002B24D0069B0233F7
:104F900009930023089311E0089B9B00039A1A448D
:104FA000099B591C099107990B4012681349023358
:104FB0009B000B445A60089B01330893089A029B9C
:104FC0009A42E9D3069A079B00931346029A0499E2
:104FD0000598FFF7E5FE094B1B78002B05D000BFB5
:104FE00000F06AF80346002BFAD1FFF727FF00BF55
:104FF0000BB05DF804FB00BF04000020400200205D
:1050000000B583B00190009100230022009901981F
:10501000FFF7AAFF00BF03B05DF804FB00B587B03F
:10502000039002910192019B059305AA0123029925
:105030000398FFF799FF00BF07B05DF804FB00B5C8
:1050400087B00390029101920093019B0493009B0F
:10505000059304AA022302990398FFF785FF00BF76
:1050600007B05DF804FB00B58BB00390029101928C
:105070000093019B0593009B06930C9B07930D9B4C
:1050800008930E9B099305AA052302990398FFF73D
:105090006BFF00BF0BB05DF804FB0000054B9A6886
:1050A000044B5B689A420CBF01230023DBB2184615
:1050B000704700BF4002002000B599B0FFF7EEFF37
:1050C0000346002B01D00023B9E19B4B0022C3F81B
:1050D0001824BFF34F8F00BF974B9B680493974BE7
:1050E0001B681093049A109B134002339B00924A52
:1050F00013440433119300231793002316930023C2
:105100000F9304AB19461198FFF77BFD0346002B64
:1051100019D0894BD3F81834002B14D1864B5A6818
:10512000049B9A4205D8844B5B68834A93600023B2
:1051300085E1049A109B134002339B007E4A13447E
:1051400004331193DDE70023159311E0049B5A1CEF
:105150000492109A1340159A920001A90A447649C4
:1051600002339B000B445B681360159B013315935E
:10517000159B012BEAD99DF8043003F00303DBB241
:10518000022B40F09C80BDF80630C3F389139BB21C
:105190000D93BDF80630C3F389139BB2502B28BF83
:1051A00050239BB20C930C9BC3F309039AB2BDF836
:1051B000063062F38F13ADF806300C9B08330B9367
:1051C0009DF80430C3F3C203DBB20F930B995C4824
:1051D00000F060F91790179B002B00F0D380179810
:1051E00000F0E9F901A9169B0822179800F08DFA42
:1051F000169B08331693049BDA43109B134001332C
:105200009B000A930C9A0A9B9A4242D90A9B002B54
:1052100008D0049A109B134002339B00464A134463
:10522000043300E0474B08930A9B002B02D00A9BF3
:10523000DBB201E00C9BDBB28DF81F300A9B002B28
:1052400001D0404B00E0002306930A9B002B06D0C0
:105250000C9BDAB20A9BDBB2D31ADBB200E000236C
:105260008DF817309DF81F20169B0899179800F0AD
:105270004CFA9DF81F30169A13441693069B002B88
:1052800016D09DF81720169B0699179800F03DFA46
:105290000EE0049A109B134002339B00264A1344ED
:1052A00004330993169B0C9A0999179800F02DFA6C
:1052B0000D9B03339A08049B1344049362E09DF80A
:1052C000043003F00303DBB2012B5BD1BDF80430E3
:1052D000C3F38313DBB2062B28BF0623DAB2BDF873
:1052E000043062F38913ADF80430BDF80430C3F321
:1052F0008313DBB202330E939DF80430C3F3C20371
:10530000DBB20F930E9B9B0019460D4800F0C2F8CC
:105310001790179B002B35D0179800F04CF901A976
:10532000169B0822179800F0F0F9169B0833169385
:10533000002315931DE000BF400200200400002060
:10534000E00700204C020020049B5A1C0492109A93
:10535000134002339B003C4A1344191D169B042240
:10536000179800F0D2F9169B04331693159B01335E
:105370001593BDF80430C3F38313DBB21A46159BB3
:105380009342E1D3179B002B39D02F4BD3F8103425
:1053900014932D4BD3F81834002B1BD0179800F022
:1053A00019F946E000238DF84F301498FFF721FCDF
:1053B0000346002B02D001238DF84F309DF84F306B
:1053C000002B03D017991498FFF7E4FB149BDB68BC
:1053D0001B681493149B002BE4D1179800F0FAF883
:1053E0000020FFF7C3FA184BD3F81834002B02D172
:1053F000049B154A93600020FFF7C1FA19E0124B95
:10540000D3F81034129306E01298FFF7DDFB129BDD
:10541000DB681B681293129B002BF5D10B4A0C4BD7
:10542000D31ADB081B0443F002030A491846FFF7AE
:10543000E7FDFFF733FE034683F00103DBB21846B6
:1054400019B05DF804FB00BF400200207870010035
:10545000407001005C71010000B583B00C4BD3F8C3
:10546000103401930A4B01221A7009E00198FFF7EA
:10547000B7FB0198FFF79CFB019BDB681B6801935E
:10548000019B002BF2D100BF00BF03B05DF804FB0D
:105490004002002000B58BB001900091019B1B8A57
:1054A000043B0793009A079B1344DA1C079BB2FB4B
:1054B000F3F38DF81B300198FFF71BFB0590059B5C
:1054C000002B01D1002338E0059B00221A71059BB7
:1054D00001225A71079B9AB2059BDA80059B0993BA
:1054E0009DF81B30013B0493099B019A1A6000232D
:1054F00008931DE00198FFF7FCFA0390039B002B33
:105500000ED0059B5B790133DAB2059B5A71099B7A
:10551000039A1A60039B019A1A60039B099304E0A3
:10552000059800F00EF8002307E0089B013308936C
:10553000089A049B9A42DDD3059B18460BB05DF890
:1055400004FB00B58BB00190019B0793079B5B792F
:105550008DF81B30019B08939DF81B30013B059390
:105560000023099305E0089B1B680893099B0133FE
:105570000993099A059B9A42F5D3089B1B680493EB
:10558000019B0893002309930BE0089B1B6803937E
:1055900008990498FFF7E4FA039B0893099B0133E9
:1055A00009939DF81B30099A9A42EED300BF00BFC1
:1055B0000BB05DF804FB00B585B00190019B03932F
:1055C000039B043301211846FFF72BFA00BF05B0F7
:1055D0005DF804FB00B587B00190019B0593059B26
:1055E000043301211846FFF734FA0346039303AB53
:1055F0000493049B1B78002B02D10198FFF7A1FFB5
:1056000000BF07B05DF804FB00B591B003900291B4
:1056100001920093039B0993039B0F93099BDB88E3
:105620001A46099B5B7902FB03F3043B0893099B31
:10563000DB880793009B1A1D079BB2FBF3F30E93C5
:10564000009B0433079AB3FBF2F2079901FB02F2C5
:105650009B1A0D93019B1A68009B1344089A9A4267
:1056600003D2089A009BD31A01E0019B1B680C939C
:10567000019B0C9A1A6005E00F9B1B680F930E9B11
:10568000013B0E930E9B002BF6D100230B93079A40
:105690000D9BD31A0A930A9A0C9B934228BF134678
:1056A0000A932AE0029A0B9B134406930F9A0D9BD0
:1056B0001344043305939DF84830002B05D00A9A13
:1056C0000599069801F060FC04E00A9A069905988D
:1056D00001F05AFC00230D930F9B1B680F930C9A4B
:1056E0000A9BD31A0C930B9A0A9B13440B93079AA9
:1056F0000C9B934228BF13460A930C9B002BD1D1DD
:1057000000BF00BF11B05DF804FB00B589B0059083
:10571000049103920293039B079307AA002300932B
:10572000029B04990598FFF76FFF00BF09B05DF871
:1057300004FB000000B585B00190019800F00EF860
:105740000390039B002B01D0039B00E0024B184603
:1057500005B05DF804FB00BF7071010086B00190D8
:10576000164B0593164B04931FE0049A059BD31A1E
:10577000DB10DA0F13445B10DB00059A134403932C
:10578000039B1B680293029A019B9A4202D9039BD6
:1057900004930AE0029A019B9A4203D2039B0833C6
:1057A000059302E0039B5B6804E0059A049B9A4220
:1057B000DBD30023184606B0704700BF44750100D4
:1057C0005C76010082B003468DF807309DF9073002
:1057D000002B0CDB9DF8073003F01F0205499DF9F3
:1057E00007305B09012000FA02F241F8232000BFD4
:1057F00002B0704700E100E082B003468DF8073048
:105800009DF90730002B13DB9DF8073003F01F02D2
:1058100009499DF907305B09012000FA02F22033A3
:1058200041F82320BFF34F8F00BFBFF36F8F00BF3E
:1058300000BF02B0704700BF00E100E082B0034645
:105840008DF807309DF90730002B0DDB9DF80730F0
:1058500003F01F0206499DF907305B09012000FA99
:1058600002F2403341F8232000BF02B0704700BF6E
:1058700000E100E082B003468DF807309DF9073063
:10588000002B0DDB9DF8073003F01F0206499DF940
:1058900007305B09012000FA02F2603341F823204F
:1058A00000BF02B0704700BF00E100E082B00346D5
:1058B00000918DF807309DF90730002B0ADB009B23
:1058C000DAB20C499DF907305201D2B20B4483F889
:1058D00000230BE0009BDAB207499DF8073003F084
:1058E0000F03043B5201D2B20B441A7600BF02B040
:1058F000704700BF00E100E000ED00E000B585B0BA
:105900000190019B002B0AD0074B43F00103039346
:10591000019B9B010293039B0298984700E000BF04
:1059200005B05DF804FB00BF6076010000B583B0F0
:105930000190064A019BC2F8083507211120FFF7A4
:10594000B5FF00BF03B05DF804FB00BF00100140CD
:1059500008B50D4B4FF48032C3F844230A4B4FF483
:105960008032C3F804231120FFF784FF1120FFF7D2
:1059700029FF054B01221A602F20FFF7BFFF034BC1
:1059800001221A7000BF08BD001001407E070020F0
:1059900008B51120FFF730FF0E4B4FF48032C3F8EB
:1059A00048230C4B4FF48032C3F80823094B0122E3
:1059B0005A602F20FFF7A2FF064B01229A60064B88
:1059C00000221A602F20FFF799FF044B00221A7063
:1059D00000BF08BD00100140700700207E070020B6
:1059E000024BD3F804351846704700BF0010014041
:1059F00082B001900091019A009BD31A23F07F435B
:105A0000184602B07047000082B00190034A019B23
:105A1000C2F8403500BF02B0704700BF001001401F
:105A200086B00190284B1B68002B03D1264A019BAE
:105A3000136045E0019B1A68234B1B681B689A4260
:105A400010D8214B1B681968019B1A681E4B1B68F4
:105A50008A1A1A601C4B1A68019BDA611A4A019B68
:105A600013602DE0019B1B680393174B1B68059384
:105A7000154B1B68049309E0049B1B68039AD31A17
:105A80000393049B0593049BDB690493049B002B05
:105A900004D0049B1B68039A9A42EDD8049B002B08
:105AA00005D0049B1A68039BD21A049B1A60019BC1
:105AB000039A1A60019B049ADA61059B019ADA61E4
:105AC00000BF06B0704700BF6C07002000B587B06C
:105AD00001902A4B1B680393284B1B680593059B79
:105AE000049308E0049A019B9A4208D0049B059312
:105AF000049BDB690493049B002BF3D100E000BFFF
:105B0000049B002B01D1002333E0059A049B9A42A9
:105B100014D11A4B1B68DB69184A1360174B1B68BA
:105B2000002B0BD1164B01229A60164B00221A60F3
:105B3000154B01221A702F20FFF7E0FE049B1B6813
:105B40000293049BDA69059BDA61059BDB69049388
:105B5000049B002B05D0049B1A68029B1A44049BEB
:105B60001A60064B1B68039A9A4214BF0123002354
:105B7000DBB2184607B05DF804FB00BF6C070020DD
:105B800000100140700700207F07002008B5112099
:105B9000FFF754FE00BF08BD08B51420FFF74EFE06
:105BA00000BF08BD00B583B00190019B5B69019AFD
:105BB00092691046984700BF03B05DF804FB0000EF
:105BC00000B585B02B4B1B68002B4ED000230193F2
:105BD000FFF706FF0246284B1B6819461046FFF7E1
:105BE00007FF0290234B1B6803931DE0039B1B6878
:105BF000029A9A421CD3039B1B68029AD31A0293FF
:105C0000039B1B68019A13440193039B0093039B1E
:105C1000DB690393009B1B7C002B05D0009B0022BB
:105C20001A740098FFF7BEFF039B002BDED100E043
:105C300000BF124B1A78124B1B789A420CD1104BB2
:105C40001B780133DAB20E4B1A700D4B1B78022B06
:105C500002D10B4B00221A70094B1B781946094AD6
:105C6000019B42F82130FFF797FF00BF05B05DF8B8
:105C700004FB00BF6C070020700700207C07002099
:105C80007D0700207407002082B00190184B1A781D
:105C9000184B1B789A4223D0154B1B780133DAB28C
:105CA000134B1A70124B1B78022B02D1104B00229F
:105CB0001A700F4B1B781A460F4B53F82220019B8A
:105CC0001A60019B1A680D4B1B6813440B4A136042
:105CD0000A4B1B6823F07F43084A1360012303E04B
:105CE000019B00221A600023184602B0704700BFD3
:105CF0007C0700207D07002074070020700700202B
:105D000088B00390029101920023079338E0204B62
:105D10001B680693069B1B68039A9A4206D2069B51
:105D20001A68039BD21A069B1A602EE0069B1B681A
:105D3000039AD31A0393069B1B68079A134407938D
:105D4000069B00221A60124B1B680593069BDB69B9
:105D50000F4A1360069BDB68002B11D0029A079B49
:105D6000134423F07F42069B5A60069BDA68069B29
:105D70009A60019B1A68069BDA61019B059A1A607A
:105D8000034B1B68002BC2D100BF00BF08B0704797
:105D90006C07002000B589B0019000238DF81F30FA
:105DA000664B1B680593AAE0019B002B05D0019B65
:105DB0000693069BDB69019361E0614B1B781A46F1
:105DC00013465B001344DB005D4A13440433049321
:105DD0005B4B1B780133DAB2594B1A70584B1A7867
:105DE000574B9B789A4202D1554B00221A70049B64
:105DF0005B680693049B1B78032B1ED0032B7EDC71
:105E0000012B1FD0022B7AD1049B5B681846FFF749
:105E10005DFE0346002B02D001238DF81F30069B48
:105E200000221A746BE0454B1B680393039B00220E
:105E30001A74039BDB69414A1360404B1B68002BBB
:105E4000F1D15CE000BF069B1B7C002B00D056E02C
:105E5000049B9A68069B5A60049BDA68069B9A60CA
:105E6000049B1A69069BDA60049B5A69069B9A6137
:105E7000344B1B78002B02D0069B00225A60069BF5
:105E80005A68314B1B68D31A23F07F432F4A934241
:105E90000ED8069B5B682C4A126811461846FFF71D
:105EA000A7FD0246069B9B681A44069B1A6017E0F2
:105EB000254B1A68069B5B6819461046FFF798FD4C
:105EC0000290069B9B68029A9A4206D2069B9A68A9
:105ED000029BD21A069B1A6002E0069B00221A60FF
:105EE000069B00225A60069B00229A60069B0122B4
:105EF0001A74069B0022DA610698FFF791FD019B58
:105F0000002B7FF451AF0E4B1A780D4B5B789A4201
:105F10007FF44AAF9DF81F30002B04D1074B1B685C
:105F2000059A9A4201D0012300E0002303F0010307
:105F3000DBB2184609B05DF804FB00BF6C07002017
:105F4000600600207F07002070070020FEFF7F0012
:105F500010B588B00190274B1B68002B44D0254B0F
:105F60001B681B680793FFF73BFD0690224B1B68DD
:105F7000059305990698FFF73BFD03460333049309
:105F80001E4B1B7883F00103DBB2002B01D0FFF71F
:105F9000DFFC049A079B934238BF1346059A1344CB
:105FA0000593059B23F07F4305930598FFF72CFD90
:105FB000FFF716FD039006990398FFF719FD0346B6
:105FC000DC1C06990598FFF713FD03469C420DD98A
:105FD000FFF706FD03461846FFF716FD2F20FFF7D3
:105FE0008DFCFFF7D3FD01E0FFF7D2FC00BF08B046
:105FF00010BD00BF6C070020700700207E07002046
:1060000000B587B00023019300238DF81730194B9A
:106010001B680493184B1B6803936B461846FFF7E5
:1060200033FE03468DF80B309DF80B30002B08D063
:10603000009B01AA04991846FFF762FE01238DF820
:106040001730019B1846FFF7A5FE0346002B02D030
:1060500001238DF817309DF81730002B02D00398DC
:10606000FFF776FF054B00221A7000BF07B05DF8FE
:1060700004FB00BF700700206C0700207F07002092
:1060800082B003468DF80730034A9DF807305370FD
:1060900000BF02B0704700BF6006002084B00190CE
:1060A000144B5B7801338DF80F30124B9B789DF8C1
:1060B0000F209A4202D100238DF80F300D4B1B7830
:1060C0009DF80F209A4201D100230FE0019B9DF81B
:1060D0000F201A70074B5B781A4613465B00134477
:1060E000DB00044A134404330293029B184604B0B5
:1060F000704700BF6006002000B589B00390029190
:1061000001920093002307930020FEF72FFC0DF16E
:1061100017031846FFF7C2FF0690069B002B02D11B
:106120000423079318E0069B01221A70069B039A2A
:106130005A60FFF755FC0246069B9A60069B029A3E
:10614000DA60069B019A1A61069B009A5A619DF8D3
:1061500017301846FFF794FF0020FEF710FC079B4E
:10616000002B01D1FFF718FD079B184609B05DF819
:1061700004FB000008B50E4B0022C3F840210C4B75
:106180000022C3F844210A4B0022C3F84821084BDF
:106190000022C3F84C21064B0022C3F80021044B17
:1061A0000022C3F80421FFF70BFD00BF08BD00BFAC
:1061B0000010014008B5FFF723FF00BF08BD000035
:1061C00008B5FFF7E5FB134B00221A70114B0022B4
:1061D0005A70104B0B229A700F4B00221A600F4B13
:1061E00000221A700E4B00221A701420FFF742FB97
:1061F00007211420FFF75AFB1420FFF7E3FA0120D0
:10620000FFF794FBFFF7ECFB0346064A13600023FD
:10621000184608BD600600206C0700207C0700209F
:106220007D0700207007002086B003900B46019286
:106230008DF80B30134B9B78002B01D108231EE007
:10624000019B002B01D1072319E0039B002B01D1F7
:10625000072314E0039B1B681B7C002B01D0082341
:106260000DE0039B1B680593059B00221A74059B98
:106270009DF80B205A74059B019A5A610023184619
:1062800006B070476006002000B587B00390029109
:106290000192039B0593164B9B78002B01D1082399
:1062A00022E0039B002B01D108231DE0029B042B5D
:1062B00003D9029BB3F1807F01D3072314E0059B30
:1062C0005B69002B01D108230EE0059B5B7C012B51
:1062D00001D1029B00E000230493019B049A0299E0
:1062E0000598FFF709FF0346184607B05DF804FB61
:1062F0006006002000B585B00190019B002B0AD0FC
:10630000074B43F001030393019B9B010293039B03
:106310000298984700E000BF05B05DF804FB00BF9D
:106320000077010000B583B00190019B043318464B
:10633000FDF7B0FC00BF03B05DF804FB00B589B009
:10634000059003921A460B468DF8133013468DF8CC
:10635000123000230793059B181D9DF812209DF80D
:1063600013109DF8283000931346039AFDF7B0FFF1
:106370000790079B184609B05DF804FB00B587B08D
:10638000039001921A460B468DF80B3013468DF898
:106390000A3000230593039B181D9DF80A309DF8D1
:1063A0000B10019AFDF7BCFF0590059B184607B03E
:1063B0005DF804FB00B583B00190019B002B0AD06F
:1063C0004FF47A70FFF796FF019B013B0193019B0D
:1063D000002BF5D100E000BF03B05DF804FB000026
:1063E00082B00190019B1B681F2B02D84FF0A04385
:1063F00006E0019B1B6803F01F02019B1A60024B21
:10640000184602B0704700BF0003005000B585B0C9
:106410000190084611461A4603468DF803300B4694
:106420008DF8023013468DF8013001AB1846FFF7A6
:10643000D7FF03909DF803209DF802305B001A43BC
:106440009DF801309B001A439DF818301B0242EA68
:1064500003019DF81C301B04019A1943039B02F5AC
:10646000E07243F8221000BF05B05DF804FB00B5F0
:1064700085B00390002301930023009300230122A1
:1064800001210398FFF7C2FF00BF05B05DF804FBD0
:1064900000B585B003900B468DF80B3013468DF890
:1064A0000A309DF80B209DF80A30019300230093D9
:1064B0001346002200210398FFF7A8FF00BF05B094
:1064C0005DF804FB00B585B0019001AB1846FFF7FD
:1064D00087FF0390019B012202FA03F319460398F8
:1064E00000F026F800BF05B05DF804FB00B585B0EC
:1064F000019001AB1846FFF773FF0390039BD3F89D
:1065000004350293029BDA43019B012101FA03F354
:106510001A40039BC3F80825019B01229A40029B65
:106520001A40039BC3F80C2500BF05B05DF804FBBF
:1065300082B001900091019B009AC3F8082500BF2A
:1065400002B0704700B585B0FFF73AFE0390039B99
:106550000293029B002B04D0154A75210298FEF786
:1065600059F9144A00211448FFF75EFE0390039B7B
:106570000193019B002B04D00D4A79210198FEF76D
:1065800049F90E4B00224FF420311846FFF77CFEEC
:106590000390039B0093009B002B04D0044A7D21B1
:1065A0000098FEF737F900BF05B05DF804FB00BFA7
:1065B0007C760100CD66010068760100840700202A
:1065C00082B001900091019B1B78002B03D1044BFA
:1065D00001221A7000E000BF00BF02B0704700BF88
:1065E000A407002000B587B06B4600221A605A60ED
:1065F0009A60DA6024230093182301934FF0CC7340
:10660000029302238DF80C30694600230A4A0B4896
:10661000FEF780F80590059B0493049B002B04D0A3
:10662000074AAC210498FEF7F5F80448FFF77AFE14
:1066300000BF07B05DF804FBC16501006C76010086
:106640007C76010000B587B003900B468DF80B30C7
:106650001B4B01221A701B48FFF764FE31238DF893
:10666000143000238DF8133005AA00230093012372
:1066700019211448FFF762FE0A20FFF79BFE00BFB6
:10668000114B1B78DBB283F00103DBB2002BF7D197
:106690000DF11302012319210A48FFF76FFE0A20AA
:1066A000FFF788FE00BF084B1B78DBB283F00103C5
:1066B000DBB2002BF7D100BF00BF07B05DF804FBD1
:1066C000800700206C760100A407002000B587B089
:1066D000039031238DF8143000238DF8133005AA70
:1066E00000230093012319211348FFF727FE0A20F6
:1066F000FFF760FE00BF114B1B78DBB283F0010394
:10670000DBB2002BF7D10DF11302012319210A4846
:10671000FFF734FE0A20FFF74DFE00BF074B1B7842
:10672000DBB283F00103DBB2002BF7D100BF00BF67
:1067300007B05DF804FB00BF6C760100A4070020E1
:1067400000B585B0FCF72EFE034683F00103DBB2F3
:10675000002B01D0FCF7C2FD144A01AB12681146B0
:1067600019800233120C1A7000238DF8053001AB2A
:106770000F4A19461020FCF76BFE0390039B02930F
:10678000029B002B05D00B4A40F201110298FEF744
:1067900041F801211020FCF7CBFE0222002110203D
:1067A000FFF776FE00BF05B05DF804FBF47601004C
:1067B000456601007C76010000B585B00820FFF732
:1067C00056FE0820FFF77EFE4FF4FA70FFF7F2FD49
:1067D00020238DF80C3000238DF80D3003AA002300
:1067E000009302231921C648FFF7A8FD03468DF840
:1067F0000F300A20FFF7DEFD00BFC24B1B78DBB273
:1068000083F00103DBB2002BF7D121238DF80C308C
:1068100000238DF80D3003AA0023009302231921D1
:10682000B748FFF78BFD03468DF80F300A20FFF7BE
:10683000C1FD00BFB34B1B78DBB283F00103DBB2B9
:10684000002BF7D122238DF80C3000238DF80D306A
:1068500003AA0023009302231921A948FFF76EFD24
:1068600003468DF80F300A20FFF7A4FD00BFA54BAB
:106870001B78DBB283F00103DBB2002BF7D12323BB
:106880008DF80C3000238DF80D3003AA00230093FF
:10689000022319219A48FFF751FD03468DF80F3066
:1068A0000A20FFF787FD00BF964B1B78DBB283F011
:1068B0000103DBB2002BF7D124238DF80C30002329
:1068C0008DF80D3003AA00230093022319218C4870
:1068D000FFF734FD03468DF80F300A20FFF76AFDFD
:1068E00000BF884B1B78DBB283F00103DBB2002BC7
:1068F000F7D125238DF80C3000238DF80D3003AA35
:1069000000230093022319217D48FFF717FD03465A
:106910008DF80F300A20FFF74DFD00BF794B1B7833
:10692000DBB283F00103DBB2002BF7D132238DF809
:106930000C3000238DF80D3003AA002300930223AE
:1069400019216F48FFF7FAFC03468DF80F300A2033
:10695000FFF730FD00BF6B4B1B78DBB283F0010308
:10696000DBB2002BF7D133238DF80C3000238DF8E8
:106970000D3003AA00230093022319216048FFF77A
:10698000DDFC03468DF80F300A20FFF713FD00BF32
:106990005C4B1B78DBB283F00103DBB2002BF7D139
:1069A00030238DF80C3000238DF80D3003AA00231E
:1069B0000093022319215248FFF7C0FC03468DF8CB
:1069C0000F300A20FFF7F6FC00BF4E4B1B78DBB2FE
:1069D00083F00103DBB2002BF7D120238DF80C30BC
:1069E0002F238DF80D3003AA0023009302231921D1
:1069F0004348FFF7A3FC03468DF80F300A20FFF74A
:106A0000D9FC00BF3F4B1B78DBB283F00103DBB244
:106A1000002BF7D121238DF80C3001238DF80D3098
:106A200003AA00230093022319213548FFF786FCAF
:106A300003468DF80F300A20FFF7BCFC00BF314B36
:106A40001B78DBB283F00103DBB2002BF7D12223EA
:106A50008DF80C3040238DF80D3003AA00230093ED
:106A6000022319212648FFF769FC03468DF80F30F1
:106A70000A20FFF79FFC00BF224B1B78DBB283F09C
:106A80000103DBB2002BF7D123238DF80C308023D8
:106A90008DF80D3003AA0023009302231921184812
:106AA000FFF74CFC03468DF80F300A20FFF782FCFD
:106AB00000BF144B1B78DBB283F00103DBB2002B69
:106AC000F7D124238DF80C3008238DF80D3003AA5C
:106AD00000230093022319210948FFF72FFC0346E6
:106AE0008DF80F300A20FFF765FC00BF054B1B78BF
:106AF000DBB283F00103DBB2002BF7D104E000BF6F
:106B00006C760100A407002025238DF80C300023AB
:106B10008DF80D3003AA0023009302231921374872
:106B2000FFF70CFC03468DF80F300A20FFF742FCFC
:106B300000BF334B1B78DBB283F00103DBB2002BC9
:106B4000F7D132238DF80C302E4B1B788DF80D3099
:106B500003AA00230093022319212848FFF7EEFB24
:106B600003468DF80F300A20FFF724FC00BF244BAA
:106B70001B78DBB283F00103DBB2002BF7D13323A8
:106B80008DF80C3000238DF80D3003AA00230093FC
:106B9000022319211948FFF7D1FB03468DF80F3066
:106BA0000A20FFF707FC00BF154B1B78DBB283F010
:106BB0000103DBB2002BF7D130238DF80C30AA2370
:106BC0008DF80D3003AA00230093022319210B48EE
:106BD000FFF7B4FB03468DF80F300A20FFF7EAFBFE
:106BE00000BF074B1B78DBB283F00103DBB2002B45
:106BF000F7D100BF00BF05B05DF804FB6C76010063
:106C0000A40700200800002008B5FFF79BFCFFF751
:106C100097FDFFF7E7FCFFF7CFFD054B1B78002B37
:106C2000FBD00520FFF762FC014B00221A70F4E74D
:106C30008007002082B000238DF80730054B064AFC
:106C40001A609DF8073001338DF8073000BF02B09D
:106C5000704700BFA8070020096C010000B585B08F
:106C6000264B1B689B680393039B4FF080421A617D
:106C7000039B4FF0A0525A61039B002283F82C2003
:106C8000039B0293039B1C330193029B03221A7004
:106C9000029B01221A73029B194A5A60029B01222D
:106CA0001A72019B03221A70019B08225A70019BE1
:106CB0001D229A70019BFF22DA70019B02221A7139
:106CC000019BFF225A71019B4FF080429A60019B09
:106CD00000221A73019B00225A730A4A6B461268FB
:106CE000114619800233120C1A706B461946262081
:106CF000FCF764FB00BF05B05DF804FB1800002042
:106D000000F002400877010082B00190019B1B68EF
:106D10001F2B02D84FF0A04306E0019B1B6803F035
:106D20001F02019B1A60024B184602B0704700BF59
:106D30000003005000B585B00190084611461A4680
:106D400003468DF803300B468DF8023013468DF85C
:106D5000013001AB1846FFF7D7FF03909DF80320E1
:106D60009DF802305B001A439DF801309B001A43E6
:106D70009DF818301B0242EA03019DF81C301B04E9
:106D8000019A1943039B02F5E07243F8221000BFF9
:106D900005B05DF804FB00B585B0039000230193B6
:106DA000002300930023012201210398FFF7C2FF73
:106DB00000BF05B05DF804FB00B585B0019001ABE4
:106DC0001846FFF7A1FF0390039800F00AF8024667
:106DD000019B22FA03F303F00103184605B05DF8A6
:106DE00004FB82B00190019BD3F81035184602B025
:106DF0007047000000B583B0FCF770FA0190019B6A
:106E00000093009B002B04D0044A47210098FDF713
:106E100001FD00BF03B05DF804FB00BF9C770100DB
:106E200000B583B001900B468DF8033000F048F8B0
:106E300000BF03B05DF804FB00B585B01D4A6B468A
:106E40001268114619800233120C1A7001238DF852
:106E500001306B46184A19462220FCF7F9FA0390D4
:106E6000039B0293029B002B04D0144A60210298DA
:106E7000FDF7D0FC00212220FCF75AFB3320FFF75E
:106E80008AFF6B460C4A19460220FCF7E1FA039090
:106E9000039B0193019B002B04D0084A67210198B2
:106EA000FDF7B8FC00210220FCF742FB00BF05B053
:106EB0005DF804FB20780100216E01009C77010041
:106EC00008B506E0074B1B68002B02D0054B1B687A
:106ED000984700F009F80346002BF3D100BF00BF2C
:106EE00008BD00BFDC07002008B5044B1B8818460E
:106EF000FFF762FF0346184608BD00BF0A000020E6
:106F000000B585B00190019B002B0AD0074B43F0E0
:106F100001030393019B9B010293039B02989847F3
:106F200000E000BF05B05DF804FB00BF3078010051
:106F300000B583B00190019B002B0AD04FF47A700A
:106F4000FFF7DEFF019B013B0193019B002BF5D175
:106F500000E000BF03B05DF804FB000008B5FFF7D8
:106F600069FE0320FBF745FAFFF744FFFFF776FEC3
:106F7000FFF762FF0220FFF7DBFF024B1B68984719
:106F8000FEE700BFA8070020844640EA010313F093
:106F9000030F18D18446202A0BD32DE9F007B1E85E
:106FA000F807A0E8F807A2F12002202AF7D2BDE8EE
:106FB000F007042A07D351F8043B40F8043BA2F140
:106FC0000402042AF7D2002A05D011F8013B00F888
:106FD000013B013AF9D1604670478446002A2DD022
:106FE00010F0030F04D000F8011B013A26D0F7E798
:106FF000C9B241EA012141EA0141202A12D3A2F19A
:1070000020022DE9F0030B460C460D460E460F46B6
:1070100088468946A0E8FA03203AFBD2BDE8F0038F
:1070200020320BD0042A05D340F8041B043A05D0C3
:10703000042AF9D200F8011B013AFBD160467047DF
:10704000B070010000000000A0700100000000000E
:107050008C70010000000000907001000000000032
:10706000C870010000000000C070010000000000B6
:10707000B870010000000000587101000000030317
:08708000A870010000000000EF
:107088000405160E505253005350494D000000009D
:1070980000000050000300504750494F544500007D
:1070A800636C6F636B000000434C4F434B00000060
:1070B800554152544500000055415254000000000B
:1070C8005457490091440100A94401000000000000
:1070D80000000000000000000338FDD870470000E1
:1070E800415353455254494F4E204641494C45441B
:1070F8002061742025733A25750000004552524FCF
:1071080052202575205B25735D2061742025733A14
:1071180025750D0A50432061743A2030782530389F
:1071280078000000456E64206F66206572726F7289
:10713800207265706F727400554E4B4E4F574E203B
:107148004641554C54206174203078253038580019
:10715800617070004261636B656E647320666C7564
:107168007368656400000000556E6B6E6F776E2063
:107178006572726F7220636F646500004E52465FDD
:1071880053554343455353004E52465F4552524F61
:10719800525F5356435F48414E444C45525F4D49F8
:1071A8005353494E470000004E52465F4552524FD6
:1071B800525F534F46544445564943455F4E4F54DA
:1071C8005F454E41424C4544000000004E52465F28
:1071D8004552524F525F494E5445524E414C000061
:1071E8004E52465F4552524F525F4E4F5F4D454D8E
:1071F800000000004E52465F4552524F525F4E4FBC
:10720800545F464F554E44004E52465F4552524FCA
:10721800525F4E4F545F535550504F52544544009F
:107228004E52465F4552524F525F494E56414C4965
:10723800445F504152414D004E52465F4552524FB5
:10724800525F494E56414C49445F5354415445009E
:107258004E52465F4552524F525F494E56414C4935
:10726800445F4C454E475448000000004E52465F6C
:107278004552524F525F494E56414C49445F464C25
:10728800414753004E52465F4552524F525F494E56
:1072980056414C49445F4441544100004E52465FB8
:1072A8004552524F525F444154415F53495A450039
:1072B8004E52465F4552524F525F54494D454F55C5
:1072C800540000004E52465F4552524F525F4E5591
:1072D8004C4C00004E52465F4552524F525F464F4B
:1072E8005242494444454E004E52465F4552524F21
:1072F800525F494E56414C49445F41444452000054
:107308004E52465F4552524F525F42555359000004
:107318004E52465F4552524F525F4D4F44554C4571
:107328005F4E4F545F494E495449414C495A454470
:10733800000000004E52465F4552524F525F4D5575
:107348005445585F494E49545F4641494C454400AD
:107358004E52465F4552524F525F4D555445585F05
:107368004C4F434B5F4641494C4544004E52465FA3
:107378004552524F525F4D555445585F554E4C4FEC
:10738800434B5F4641494C45440000004E52465F1E
:107398004552524F525F4D555445585F434F4E44E6
:1073A8005F494E49545F4641494C4544000000003E
:1073B8004E52465F4552524F525F4D4F44554C45D1
:1073C8005F414C52454144595F494E495449414CEB
:1073D800495A4544000000004E52465F4552524FFC
:1073E800525F53544F524147455F46554C4C00003D
:1073F8004E52465F4552524F525F4150495F4E4F81
:10740800545F494D504C454D454E5445440000008D
:107418004E52465F4552524F525F4645415455526F
:10742800455F4E4F545F454E41424C454400000075
:107438004E52465F4552524F525F494F5F50454E3C
:1074480044494E47000000004E52465F4552524F95
:10745800525F4452565F5457495F4552525F4F56E8
:10746800455252554E0000004E52465F4552524F0B
:10747800525F4452565F5457495F4552525F414EDE
:1074880041434B004E52465F4552524F525F445261
:10749800565F5457495F4552525F444E41434B0033
:1074A8004E52465F4552524F525F424C455F4950DB
:1074B80053505F52585F504B545F5452554E43419E
:1074C800544544004E52465F4552524F525F424C1B
:1074D800455F495053505F4348414E4E454C5F41CC
:1074E8004C52454144595F45584953545300000094
:1074F8004E52465F4552524F525F424C455F49508B
:1075080053505F4C494E4B5F444953434F4E4E4591
:1075180043544544000000004E52465F4552524FC6
:10752800525F424C455F495053505F504545525F4A
:1075380052454A45435445440000000000000000FD
:107548008471010001000000907101000200000038
:10755800B071010003000000D471010004000000B4
:10756800E871010005000000FC7101000600000040
:1075780010720100070000002872010008000000D6
:107588004072010009000000587201000A00000062
:10759800747201000B0000008C7201000C000000E6
:1075A800A47201000D000000B87201000E00000076
:1075B800CC7201000F000000DC7201001000000016
:1075C800F072010011000000087301008000000043
:1075D80018730100810000003C7301008200000064
:1075E80058730100830000007473010084000000D8
:1075F8009473010085000000B87301008600000044
:10760800E073010090000000F87301009100000091
:107618001874010092000000387401000082000014
:1076280050740100018200007074010002820000A1
:107638008C74010000840000A8740100018400001B
:10764800CC74010002840000F87401000384000077
:1076580020750100000000000338FDD870470000C5
:1076680084070020000000000030004000000000F7
:10767800000000002F686F6D652F636F6E6E6F2FAF
:10768800446F63756D656E74732F7364702F4261F8
:1076980072655461675F546F6F6C5F547261636B9E
:1076A80065722F4457335F514D33335F53444B5FFB
:1076B800312E302E322F447269766572732F415005
:1076C800492F5372632F6578616D706C65732F65F0
:1076D800785F7477695F6163632F7477695F61634B
:1076E800635F746573742E6300000000010002007C
:1076F80000000000000000000338FDD870470000BB
:10770800030101002F686F6D652F636F6E6E6F2F19
:10771800446F63756D656E74732F7364702F426167
:1077280072655461675F546F6F6C5F547261636B0D
:1077380065722F4457335F514D33335F53444B5F6A
:10774800312E302E322F447269766572732F415074
:10775800492F4275696C645F506C6174666F726D15
:10776800732F6E524635323834302D444B2F536FB9
:10777800757263652F706C6174666F726D2F6465C6
:1077880063615F7370692E630000000002000200ED
:10779800030001002F686F6D652F636F6E6E6F2F8A
:1077A800446F63756D656E74732F7364702F4261D7
:1077B80072655461675F546F6F6C5F547261636B7D
:1077C80065722F4457335F514D33335F53444B5FDA
:1077D800312E302E322F447269766572732F4150E4
:1077E800492F4275696C645F506C6174666F726D85
:1077F800732F6E524635323834302D444B2F536F29
:10780800757263652F706C6174666F726D2F706F1F
:1078180072742E63000000000100020000000000E6
:0E78280000000000000000000338FDD870478B
:107838000090D003FF0000000C0022002200190075
:0C78480033002600AC0700200C000020DC
:0400000310002019B0
:00000001FF
