:100000000000022075F101005DF101005FF10100C7
:1000100061F1010063F1010065F1010000000000E1
:1000200000000000000000000000000067F1010077
:1000300069F10100000000006BF101006DF10100A9
:100040006FF101006FF1010005130200311502008C
:100050006FF101006FF101005D2302006FF10100FB
:100060006FF101006FF101006FF101006FF101000C
:100070006FF101006FF101006FF101006FF10100FC
:100080006FF101006FF101006FF101006FF10100EC
:100090006FF101006FF101006FF101006FF10100DC
:1000A0006FF101006FF101006FF101006FF10100CC
:1000B0006FF101006FF1010000000000000000007E
:1000C0006FF101006FF101006FF1010049150200AD
:1000D0006FF101006FF101006FF101006FF101009C
:1000E0006FF10100000000000000000000000000AF
:1000F000000000006FF10100000000006115020027
:1001000000000000000000000000000000000000EF
:1001100000000000000000000000000000000000DF
:1001200000000000000000000000000000000000CF
:1001300000000000000000000000000000000000BF
:1001400000000000000000000000000000000000AF
:10015000000000000000000000000000000000009F
:10016000000000000000000000000000000000008F
:10017000000000000000000000000000000000007F
:10018000000000000000000000000000000000006F
:10019000000000000000000000000000000000005F
:1001A000000000000000000000000000000000004F
:1001B000000000000000000000000000000000003F
:1001C000000000000000000000000000000000002F
:1001D000000000000000000000000000000000001F
:1001E000000000000000000000000000000000000F
:1001F00000000000000000000000000000000000FF
:020000021000EC
:10F00000354936480A1A02D0072291438D463449C1
:10F0100034480A1A06D00722914381F30988022254
:10F0200082F3148830483149314A00F044F83148BD
:10F030003149324A00F03FF831483249324A00F053
:10F040003AF832483249334A00F035F83248334909
:10F05000334A00F030F833483349344A00F02BF893
:10F0600033483449344A00F026F834483449002201
:10F0700000F02CF833483449002200F027F83348D8
:10F080003349091A082902DB002202604160314A33
:10F0900090471F481F49884205D00268043003B4D6
:10F0A000904703BCF7E700208646EC46002000218D
:10F0B000294A9047FEE7884207D0521A05D00378C4
:10F0C00001300B700131013AF9D17047884202D00A
:10F0D00002700130FAE770470000022000E00120D2
:10F0E0000000022000000220883F030000000020F2
:10F0F00050000020D0F10100D0F101002C320300BB
:10F10000883F03000000002000000020C032030000
:10F11000C0320300C0320300C0320300C03203001B
:10F12000C0320300C0320300C0320300863F030038
:10F13000D83F030050000020500000205000002065
:10F14000800B0020800B0020840B0020980B0020F7
:10F15000982B00209DF10100DDF50100FEE7FEE7A0
:10F16000FEE7FEE7FEE7FEE7FEE7FEE7FEE7FEE777
:10F1700000F002B8FFF7FCBF0F484FF007018843CB
:10F1800085460E4880470E48016841F470010160D1
:10F19000BFF34F8FBFF36F8FFFF732BF09480A49A4
:10F1A0000A4A884207D0521A05D0037801300B7002
:10F1B0000131013AF9D1704700000220FD0E020032
:10F1C00088ED00E0C03203000000002000000020B5
:10F1D00000B583B0094B1B88184603F01DF80346A1
:10F1E0000193019B002B04D0044B1B88184602F0AE
:10F1F000EBFF019B184603B05DF804FB0000002004
:10F2000000B583B00190019B002B05D0044B1B88F7
:10F210000121184602F06CFF00BF03B05DF804FB4B
:10F220000000002000B585B00190019B002B0AD0A2
:10F23000074B43F001030393019B9B010293039B44
:10F240000298984700E000BF05B05DF804FB00BFDE
:10F25000C032030000B583B00190019800F006F9B8
:10F2600000BF03B05DF804FB00B583B001900198C6
:10F27000FFF7D8FF00BF03B05DF804FB00B585B011
:10F28000264B1B689B680393039B4FF080421A61D7
:10F29000039B4FF0A0525A61039B002283F82C205D
:10F2A000039B0293039B1C330193029B03221A705E
:10F2B000029B01221A73029B194A5A60029B022286
:10F2C0001A72019B03221A70019B08225A70019B3B
:10F2D0001D229A70019BFF22DA70019B02221A7193
:10F2E000019BFF225A71019B4FF080429A60019B63
:10F2F00000221A73019B00225A730A4A6B46126855
:10F30000114619800233120C1A706B4619462620DA
:10F3100002F034FE00BF05B05DF804FB10000020D1
:10F3200000F00240C832030000B585B00190019B97
:10F33000002B0AD0074B43F001030393019B9B0171
:10F340000293039B0298984700E000BF05B05DF868
:10F3500004FB00BF9033030082B00190019B1B6847
:10F360001F2B02D84FF0A04306E0019B1B6803F05F
:10F370001F02019B1A60024B184602B0704700BF83
:10F380000003005000B585B00190084611461A46AA
:10F3900003468DF803300B468DF8023013468DF886
:10F3A000013001AB1846FFF7D7FF03909DF803200B
:10F3B0009DF802305B001A439DF801309B001A4310
:10F3C0009DF818301B0242EA03019DF81C301B0413
:10F3D000019A1943039B02F5E07243F8221000BF23
:10F3E00005B05DF804FB00B585B0039000230193E0
:10F3F000002300930023012201210398FFF7C2FF9D
:10F4000000BF05B05DF804FB00B585B0019001AB0D
:10F410001846FFF7A1FF0390039800F00AF8024690
:10F42000019B22FA03F303F00103184605B05DF8CF
:10F4300004FB82B00190019BD3F81035184602B04E
:10F44000704700B583B00190019B002B0AD04FF4A8
:10F450007A70FFF769FF019B013B0193019B002B31
:10F46000F5D100E000BF03B05DF804FB00B583B048
:10F4700001900198FFF7E5FF00BF03B05DF804FBC2
:10F4800000B583B002F016FD0190019B0093009B34
:10F49000002B04D0044A4121009800F0E5FA00BF97
:10F4A00003B05DF804FB00BF2833030000B583B050
:10F4B00001900B468DF8033000F034F800BF03B024
:10F4C0005DF804FB00B585B0134A01AB1268114624
:10F4D00019800233120C1A7001238DF8053001AB2C
:10F4E0000E4A1946222002F093FD0390039B0293DB
:10F4F000029B002B04D00A4A5721029800F0B4FA6C
:10F500000021222002F0F4FD3320FFF76CFF00BF42
:10F5100005B05DF804FB00BF80330300ADF40100CB
:10F520002833030008B506E0074B1B68002B02D008
:10F53000054B1B68984700F009F80346002BF3D1F0
:10F5400000BF00BF08BD00BF8000002008B5044B0D
:10F550001B881846FFF758FF0346184608BD00BF32
:10F560000000002000B585B00190019B002B0AD05F
:10F57000074B43F001030393019B9B010293039B01
:10F580000298984700E000BF05B05DF804FB00BF9B
:10F59000A033030000B583B00190019B002B0AD07B
:10F5A0004FF47A70FFF7DEFF019B013B0193019B53
:10F5B000002BF5D100E000BF03B05DF804FB0000B4
:10F5C00000B583B001900199034800F08DF900BFA8
:10F5D00003B05DF804FB00BF9833030008B50320B7
:10F5E00001F07BFEFFF74CFFFFF748FEFFF76AFFD5
:10F5F0000220FFF7CFFF00F0F1F9FEE700B583B07E
:10F600001F4B0193019B02221A61019B02225A6146
:10F61000019B1C4A9A61019B1B4ADA61019B4FF4D2
:10F6200080621A62019B00229A62019B00225A6248
:10F63000019B0022DA62019B124A9A64019B134AE1
:10F64000DA64019B10221A65019B00229A65019BD6
:10F6500000225A65019B0022DA65019B07330C49A1
:10F66000184604F07CFC019B0A49184604F077FC1C
:10F67000019B20229A7100BF03B05DF804FB00BF1C
:10F6800084000020A8330300FC000020FC040020BC
:10F69000B4330300B833030000B589B0039002917E
:10F6A000019200230693039BDB680593039B1B6970
:10F6B0000493049A059B9A4205D9049A059BD31A90
:10F6C000013B079307E0039B9A680499059BCB1ABB
:10F6D0001344013B0793039B9A68059BD31A079A2F
:10F6E000934228BF13460793079A019B934228BF72
:10F6F00013460793039B5A68059B1344079A029984
:10F70000184604F0D0FB069A079B13440693029A0E
:10F71000079B13440293019A079BD31A0193059AFE
:10F72000079B13440593039B9B68059A9A4201D15A
:10F7300000230593039B059ADA60019B002BB5D14A
:10F74000069B184609B05DF804FB00B589B003902C
:10F7500002910192039BDB680793039B9A68079BC6
:10F76000D31A0693069A019B9A420ED9039B5A68B4
:10F77000079B1344019A0299184604F094FB079AD8
:10F78000019B1A44039BDA601AE0069B0593039BD6
:10F790005A68079B1344059A0299184604F083FBA4
:10F7A000019A069BD31A0593039B5868029A069BFD
:10F7B0001344059A194604F076FB039B059ADA6018
:10F7C00000BF09B05DF804FB86B00190019B1B6986
:10F7D0000493019BDB680393049A039B9A4208D825
:10F7E000019B9A68039BD21A049B1344013B059327
:10F7F00004E0049A039BD31A013B0593059B18462A
:10F8000006B0704700B589B0039002910192029B47
:10F810000693039B5A1C13465B001344DB00204AEB
:10F8200013440593059B5B69022B29D0022B2ED82C
:10F83000002B02D0012B13D029E00598FFF7C4FF5D
:10F840000490049A019B9A4202D20023079321E07C
:10F85000019B0793019A06990598FFF776FF19E037
:10F860000598FFF7B1FF0490019A049B934228BFCB
:10F8700013460793079A06990598FFF766FF09E074
:10F88000019A06990598FFF707FF079002E0002309
:10F89000079300BF079B184609B05DF804FB00BF43
:10F8A0008400002000B587B00390029101920D4BB7
:10F8B0001B78002B01D1FFF7A1FEEFF311834FF06E
:10F8C000200181F311880593019A02990398FFF7AB
:10F8D00099FF0490059B83F31188049B184607B099
:10F8E0005DF804FB840000200FB400B5A3B025AB85
:10F8F000009301A8009B249A802104F0C6FA21906D
:10F90000219B802B06DD01AB802219460020FFF7EA
:10F91000C9FF08E0219B002B05DD219A01AB1946A8
:10F920000020FFF7BFFF219B184623B05DF804EBD2
:10F9300004B0704700B585B00190019B002B0AD040
:10F94000074B43F001030393019B9B010293039B2D
:10F950000298984700E000BF05B05DF804FB00BFC7
:10F960000034030000B583B00190019B002B0AD046
:10F970004FF47A70FFF7DEFF019B013B0193019B7F
:10F98000002BF5D100E000BF03B05DF804FB82B0AE
:10F99000019000BF02B0704700B583B0019011E044
:10F9A0006420FFF7C7FF019B1B78184601F09AF906
:10F9B0000346002BF4D1019B013301934FF4FA70FD
:10F9C000FFF7B8FF019B1B78002BECD10220FFF75B
:10F9D000C9FF00BF03B05DF804FB000000B583B0B1
:10F9E00004F01EFA0346DAB2174B1A701748FFF7F5
:10F9F000E7FD0623164A0021164801F00DF9019093
:10FA0000019B002B02D01448FFF7DAFDC820FFF756
:10FA10002DFD0D4B1B78114A1421114804F010FAEA
:10FA20000F48FFF7B9FF084B1B7803F5FA73184628
:10FA3000FFF71CFD04F0F4F90346DAB2024B1A702A
:10FA40000848FFF7BDFDE4E70C050020C0330300C4
:10FA50008FF9010014000020D4330300E4330300C5
:10FA600010050020F033030000B583B00290009130
:10FA7000019244F2010071466A4600F003F803B0B7
:10FA800000BD00BF30B58BB007900691059272B6ED
:10FA900000BF00F0DBFC00BF00F008FB0346002BBA
:10FAA000FAD1079B44F20102934216D0079B44F21D
:10FAB000020293423ED1059B09932C4A2C4BD31A48
:10FAC000DB081B0443F00100099B5B681A46099B95
:10FAD0001B68284900F0ADFA39E0059B0893234ADA
:10FAE000234BD31ADB081B0443F00104089B9D68D9
:10FAF000089B9B68184600F0C7FC03461846089B05
:10FB00005B681946089B1B68069A02920193009154
:10FB100003462A461849204600F09FFA134A144B20
:10FB2000D31ADB081B0443F001031449184600F004
:10FB300061FA0CE00D4A0E4BD31ADB081B0443F0AC
:10FB40000103069A0E49184600F062FA00BF0D4BF9
:10FB50001B6803F00103002B00D000BE059A069934
:10FB6000079800F0D9FC00BF0BB030BDB0320300E5
:10FB70008032030008340300243403004C340300B3
:10FB800060340300F0ED00E000B583B00190009117
:10FB9000019B1B681B6800990198984700BF03B040
:10FBA0005DF804FB00B583B00190019B1B685B68A6
:10FBB0000198984700BF03B05DF804FB00B583B01F
:10FBC0000190019B1B689B680198984700BF03B098
:10FBD0005DF804FB82B00190019BDB6801225A7141
:10FBE00000BF02B0704782B00190019BDB685B7977
:10FBF000184602B0704784B00190009100238DF840
:10FC00000F30019B1B7803F00403DBB2002B24D0E0
:10FC1000019B1B78C3F30103DBB2012B02D0022B43
:10FC20000CD017E0009B1B68019A1288C2F3831264
:10FC3000D2B213449A1C009B1A600BE0009B1B6815
:10FC4000019A5288C2F3891292B213449A1C009B03
:10FC50001A6000BF01238DF80F309DF80F30184651
:10FC600004B0704700B58BB00023ADF826303B4898
:10FC700000F015FD3A4800F012FD3A4B9B680493E2
:10FC8000394B1B680693049A069B134002339B0072
:10FC9000344A13440433089304AB19460898FFF719
:10FCA000AAFF0346002B09D0049A069B1340023397
:10FCB0009B002C4A134404330893EDE700BF002354
:10FCC000079311E0049B5A1C0492069A1340079A6A
:10FCD000920001A90A44234902339B000B445B684C
:10FCE0001360079B01330793079B012BEAD99DF80B
:10FCF0000430C3F30103DBB2012B10D0022B1CD163
:10FD0000BDF80A30ADF82630BDF80630C3F38913CC
:10FD10009BB203339A08049B134404930EE0BDF88E
:10FD20000A30ADF82630BDF80430C3F38313DBB2DC
:10FD30001A46049B1344049300E000BF084800F0F7
:10FD4000BAFC0590059B002B02D0049B054A9360EA
:10FD5000BDF8263018460BB05DF804FB0C0A0020F5
:10FD6000080A0020F40500202C00002000B585B012
:10FD70000021074800F01CFC0390039B0293029BA8
:10FD800083F310030193019B184605B05DF804FB53
:10FD9000100A002000B589B00390029101920093EF
:10FDA000039B1B0C0693FFF7E1FF0790079B1904C9
:10FDB000009B5A1C0A9B1340069A0A431B490233B4
:10FDC0009B000B445A60009A0A9B134002339B002D
:10FDD000164A134404330593039B03F00703D9B277
:10FDE000059A137861F3C5031370019B03F00F03A9
:10FDF000D9B2059A138861F389131380029BC3F368
:10FE00001501059A136861F39F231360059A13780F
:10FE1000012161F301031370059A13786FF38203D4
:10FE2000137000BF09B05DF804FB00BFF4050020AB
:10FE300000BF704700B58BB00390029113468DF858
:10FE40000730039B0233089301238DF81F300020F5
:10FE500000F05AFC3E4B5A68029B1A603D4B1A68F0
:10FE60003B4B99683A4B5B68CB1A134401330993B7
:10FE700014E00121384800F0E2FBFFF7F3FE0590A3
:10FE80000599354800F0DBFB324B1A68304B996816
:10FE90002F4B5B68CB1A134401330993089A099BD3
:10FEA0009A42E6D89DF81F30002B48D000230493D7
:10FEB0009DF80730002B17D09DF81030012262F317
:10FEC00001038DF810309DF8103043F004038DF8D5
:10FED0001030039B03F00F03DAB2BDF8103062F369
:10FEE0008913ADF8103016E09DF81030022262F34D
:10FEF00001038DF810309DF8103043F004038DF8A5
:10FF00001030039BC3F309039AB2BDF8123062F3B9
:10FF10008F13ADF812300E4B5A680E4B1B6813400E
:10FF200002339B000A4A134404330693049A069B47
:10FF30001A60074B5A68089B1344054A5360002017
:10FF400000F0EBFB9DF81F3018460BB05DF804FB8A
:10FF5000F40500202C000020100A002000B58BB012
:10FF60000590049103920293204B1B68079306AB04
:10FF7000012219460298FFF75DFF0346002B24D0AB
:10FF8000069B023309930023089311E0089B9B0012
:10FF9000039A1A44099B591C099107990B4012684E
:10FFA000134902339B000B445A60089B01330893AA
:10FFB000089A029B9A42E9D3069A079B009313463C
:10FFC000029A04990598FFF7E5FE094B1B78002B70
:10FFD00005D000BF00F06AF80346002BFAD1FFF706
:10FFE00027FF00BF0BB05DF804FB00BF2C00002012
:10FFF000F405002000B583B0019000910023002299
:020000022000DC
:1000000000990198FFF7AAFF00BF03B05DF804FB59
:1000100000B587B0039002910192019B059305AA58
:10002000012302990398FFF799FF00BF07B05DF81D
:1000300004FB00B587B00390029101920093019BED
:100040000493009B059304AA022302990398FFF7E7
:1000500085FF00BF07B05DF804FB00B58BB00390CF
:10006000029101920093019B0593009B06930C9BC8
:1000700007930D9B08930E9B099305AA05230299EC
:100080000398FFF76BFF00BF0BB05DF804FB0000A7
:10009000054B9A68044B5B689A420CBF012300230E
:1000A000DBB21846704700BFF405002000B599B0D8
:1000B000FFF7EEFF0346002B01D00023B9E19B4B75
:1000C0000022C3F81824BFF34F8F00BF974B9B68E3
:1000D0000493974B1B681093049A109B13400233B0
:1000E0009B00924A13440433119300231793002377
:1000F000169300230F9304AB19461198FFF77BFD6D
:100100000346002B19D0894BD3F81834002B14D197
:10011000864B5A68049B9A4205D8844B5B68834A95
:100120009360002385E1049A109B134002339B00E7
:100130007E4A134404331193DDE70023159311E045
:10014000049B5A1C0492109A1340159A920001A91C
:100150000A44764902339B000B445B681360159B8D
:1001600001331593159B012BEAD99DF8043003F058
:100170000303DBB2022B40F09C80BDF80630C3F3D2
:1001800089139BB20D93BDF80630C3F389139BB25C
:10019000502B28BF50239BB20C930C9BC3F3090335
:1001A0009AB2BDF8063062F38F13ADF806300C9B9F
:1001B00008330B939DF80430C3F3C203DBB20F93F3
:1001C0000B995C4800F0B4FA1790179B002B00F0D5
:1001D000D380179800F03DFB01A9169B08221798C1
:1001E00000F0E1FB169B08331693049BDA43109B47
:1001F000134001339B000A930C9A0A9B9A4242D9FE
:100200000A9B002B08D0049A109B134002339B00DA
:10021000464A1344043300E0474B08930A9B002BE3
:1002200002D00A9BDBB201E00C9BDBB28DF81F30E1
:100230000A9B002B01D0404B00E0002306930A9B51
:10024000002B06D00C9BDAB20A9BDBB2D31ADBB2CE
:1002500000E000238DF817309DF81F20169B0899A9
:10026000179800F0A0FB9DF81F30169A13441693C0
:10027000069B002B16D09DF81720169B0699179801
:1002800000F091FB0EE0049A109B134002339B0098
:10029000264A134404330993169B0C9A099917981C
:1002A00000F081FB0D9B03339A08049B13440493D5
:1002B00062E09DF8043003F00303DBB2012B5BD155
:1002C000BDF80430C3F38313DBB2062B28BF06232B
:1002D000DAB2BDF8043062F38913ADF80430BDF82A
:1002E0000430C3F38313DBB202330E939DF8043062
:1002F000C3F3C203DBB20F930E9B9B0019460D485C
:1003000000F016FA1790179B002B35D0179800F0C5
:10031000A0FA01A9169B0822179800F044FB169B2F
:1003200008331693002315931DE000BFF405002049
:100330002C000020840B002000060020049B5A1C87
:100340000492109A134002339B003C4A1344191D37
:10035000169B0422179800F026FB169B0433169375
:10036000159B01331593BDF80430C3F38313DBB23F
:100370001A46159B9342E1D3179B002B39D02F4B84
:10038000D3F8103414932D4BD3F81834002B1BD012
:10039000179800F06DFA46E000238DF84F3014985E
:1003A000FFF721FC0346002B02D001238DF84F30CC
:1003B0009DF84F30002B03D017991498FFF7E4FBFA
:1003C000149BDB681B681493149B002BE4D11798D3
:1003D00000F04EFA002000F097F9184BD3F81834CB
:1003E000002B02D1049B154A9360002000F095F980
:1003F00019E0124BD3F81034129306E01298FFF76D
:10040000DDFB129BDB681B681293129B002BF5D15E
:100410000B4A0C4BD31ADB081B0443F002030A49B6
:100420001846FFF7E7FDFFF733FE034683F00103AD
:10043000DBB2184619B05DF804FB00BFF4050020DC
:10044000B0320300803203007C34030000B583B077
:100450000C4BD3F8103401930A4B01221A7009E0B7
:100460000198FFF7B7FB0198FFF79CFB019BDB6846
:100470001B680193019B002BF2D100BF00BF03B0AA
:100480005DF804FBF405002000B585B001900198EB
:1004900000F00EF80390039B002B01D0039B00E0BB
:1004A000024B184605B05DF804FB00BF9034030012
:1004B00086B00190164B0593164B04931FE0049AE7
:1004C000059BD31ADB10DA0F13445B10DB00059A8F
:1004D00013440393039B1B680293029A019B9A4265
:1004E00002D9039B04930AE0029A019B9A4203D229
:1004F000039B0833059302E0039B5B6804E0059AC5
:10050000049B9A42DBD30023184606B0704700BF15
:10051000643803007C39030086B003900291019295
:1005200001238DF817309DF81730204A039B136084
:100530001E4A029B53601D4A019B9360039B44F239
:100540000102934212D0039B44F20202934220D153
:10055000019B164AD360154BDB681B68134A9361F5
:10056000124BDB685B68114AD36112E0019B0F4AB2
:1005700013610E4B1B699B680C4A53610B4B1B6943
:100580001B680A4A9361094B1B695B68074AD36180
:1005900000BF72B600BF00BF9DF81730DBB2002B62
:1005A000FAD162B600BF00BF06B07047140A00203F
:1005B00010B487B001900091019B009A53E8004F5E
:1005C000104643E8000191F0000FF7D10594049024
:1005D0000391059B184607B05DF8044B704710B4B3
:1005E00087B001900091019B009A53E8004F44EAC4
:1005F000020043E8000191F0000FF6D10594049049
:100600000391049B184607B05DF8044B704710B483
:1006100087B001900091019B009A53E8004F04EAD3
:10062000020043E8000191F0000FF6D10594049018
:100630000391059B184607B05DF8044B704710B452
:1006400087B001900091019B009A53E8004F04EBA2
:10065000020043E8000191F0000FF6D105940490E8
:100660000391049B184607B05DF8044B704710B423
:1006700087B001900091019B009A53E8004FA4EBD2
:10068000020043E8000191F0000FF6D105940490B8
:100690000391049B184607B05DF8044B704700B502
:1006A00083B0019001210198FFF799FF0346184696
:1006B00003B05DF804FB00B583B001900021019800
:1006C000FFF7A5FF0346184603B05DF804FB0000E2
:1006D00072B600BF034B1B680133024A136000BFB0
:1006E000704700BF340A0020064B1B68013B054AD7
:1006F0001360044B1B68002B01D162B600BF00BF22
:10070000704700BF340A002000B583B00190FFF7A6
:10071000DFFF00BF03B05DF804FB00B583B0034604
:100720008DF80730FFF7E0FF00BF03B05DF804FB72
:1007300000B58BB001900091019B1B8A043B07938D
:10074000009A079B1344DA1C079BB2FBF3F38DF866
:100750001B30019800F05BF90590059B002B01D13F
:10076000002338E0059B00221A71059B01225A7173
:10077000079B9AB2059BDA80059B09939DF81B3075
:10078000013B0493099B019A1A60002308931DE022
:10079000019800F03CF90390039B002B0ED0059BC1
:1007A0005B790133DAB2059B5A71099B039A1A608F
:1007B000039B019A1A60039B099304E0059800F0DB
:1007C0000EF8002307E0089B01330893089A049B66
:1007D0009A42DDD3059B18460BB05DF804FB00B5CB
:1007E0008BB00190019B0793079B5B798DF81B30C1
:1007F000019B08939DF81B30013B0593002309934F
:1008000005E0089B1B680893099B01330993099A2B
:10081000059B9A42F5D3089B1B680493019B0893A0
:10082000002309930BE0089B1B6803930899049825
:1008300000F024F9039B0893099B013309939DF869
:100840001B30099A9A42EED300BF00BF0BB05DF88F
:1008500004FB00B585B00190019B0393039B043317
:1008600001211846FFF7EBFE00BF05B05DF804FB61
:1008700000B587B00190019B0593059B04330121CE
:100880001846FFF7F4FE0346039303AB0493049B5F
:100890001B78002B02D10198FFF7A1FF00BF07B022
:1008A0005DF804FB00B591B00390029101920093B2
:1008B000039B0993039B0F93099BDB881A46099BB3
:1008C0005B7902FB03F3043B0893099BDB880793E6
:1008D000009B1A1D079BB2FBF3F30E93009B04339E
:1008E000079AB3FBF2F2079901FB02F29B1A0D93F0
:1008F000019B1A68009B1344089A9A4203D2089AF3
:10090000009BD31A01E0019B1B680C93019B0C9A7E
:100910001A6005E00F9B1B680F930E9B013B0E9323
:100920000E9B002BF6D100230B93079A0D9BD31A35
:100930000A930A9A0C9B934228BF13460A932AE013
:10094000029A0B9B134406930F9A0D9B1344043396
:1009500005939DF84830002B05D00A9A0599069812
:1009600003F0A1FA04E00A9A0699059803F09BFAAD
:1009700000230D930F9B1B680F930C9A0A9BD31AAD
:100980000C930B9A0A9B13440B93079A0C9B93426C
:1009900028BF13460A930C9B002BD1D100BF00BF88
:1009A00011B05DF804FB00B589B005900491039285
:1009B0000293039B079307AA00230093029B0499C9
:1009C0000598FFF76FFF00BF09B05DF804FB82B028
:1009D00001900B468DF80330019BDA689DF80330D7
:1009E0000199098A01FB03F31344184602B07047CA
:1009F00082B001900091009B019AD2689B1A019AE3
:100A0000128AB3FBF2F3DBB2184602B0704700B5AE
:100A100085B00190002303930020FFF775FE019B32
:100A20001B681A68019B5B689A421FD9019B1B686F
:100A30001A68013A1A601B681B7819460198FFF77B
:100A4000C6FF0390019B9A68019B1B681B68D31A21
:100A50008DF80B30019B1B681B799DF80B209A4287
:100A600004D9019B1B689DF80B201A710020FFF729
:100A700054FE039B184605B05DF804FB10B584B026
:100A800001900091009B03930020FFF73DFE019B26
:100A90001B681C68621C1A6003990198FFF7A8FF85
:100AA000034623700020FFF738FE00BF04B010BDDE
:100AB00000B587B00390029113468DF807300023EC
:100AC0000593039B1B781A46114B9B5C002B09D0A6
:100AD000039B04339DF807200299184601F0BEFFDE
:100AE00005900FE0039B1B781A46094B9B5C002B7B
:100AF00008D1039B0C339DF807200299184602F099
:100B00004BFD0590059B184607B05DF804FB00BF40
:100B1000740B002000B587B00390029113468DF846
:100B2000073000230593039B1B781A46114B9B5CEF
:100B3000002B09D0039B04339DF807200299184627
:100B400002F03AF805900FE0039B1B781A46094B18
:100B50009B5C002B08D1039B0C339DF80720029966
:100B6000184602F0DDFD0590059B184607B05DF8BC
:100B700004FB00BF740B002000B589B00190009108
:100B8000019B1B78012B19D1019B1B7A002B0FD0E5
:100B900004238DF81830019B5B681B788DF81C309E
:100BA000194B01221A70194B1B6806AA1046984768
:100BB000012217491748FFF7ADFF20E0019B1B7882
:100BC000022B10D102238DF81030019BDB680593B6
:100BD00001220F490F48FFF79DFF0C4B1B6804AA29
:100BE000104698470BE0019B1B78002B07D103238D
:100BF0008DF80830054B1B6802AA1046984700BFC5
:100C000009B05DF804FB00BF3D0A0020400A002047
:100C10003C0A00203000002030B58FB003900291D4
:100C200001928DF80330294B04AC1D460FCD0FC443
:100C300095E80F0084E80F00039B5B690A93039B10
:100C40001B7C002B14BF01230023DBB28DF8243062
:100C50009DF803308DF82C30039B5B7C002B01D07A
:100C60000E2300E000238DF82530039BDB680693FC
:100C7000039B9B680793039B1B680593039B5B681F
:100C80000493134A019B1360124B00221A7004ABA9
:100C9000114A1946114802F0A9FF0D900D9B0C93C3
:100CA0000C9B002B01D00C9B0CE0039B1B68B3F149
:100CB000FF3F06D001220A490848FFF72BFF0346F1
:100CC00000E0002318460FB030BD00BF7C390300A0
:100CD000400A00203D0A0020790B0200300000206D
:100CE0003C0A002000B585B003468DF807300C4A59
:100CF0009DF807301370012209490A48FFF7D8FE12
:100D00000390039B112B01D1042305E0039B002BCF
:100D100001D0032300E00023184605B05DF804FB72
:100D2000380A002030000020BFF34F8F00BF064B71
:100D3000DB6803F4E0620449044B1343CB60BFF368
:100D40004F8F00BF00BFFDE700ED00E00400FA0593
:100D500082B0114B1B680193104B1B680093019BE1
:100D60000D2B14D1009B022B0DD0009B022B0CD815
:100D7000009B002B03D0009B012B02D005E0012338
:100D800006E0012304E0012302E0012300E0002348
:100D9000184602B0704700BF300100103401001047
:100DA00082B0114B1B680193104B1B680093019B91
:100DB0000D2B14D1009B022B0DD0009B022B0CD8C5
:100DC000009B002B03D0009B012B02D005E00123E8
:100DD00006E0012304E0012302E0012300E00023F8
:100DE000184602B0704700BF3001001034010010F7
:100DF00082B0114B1B680193104B1B680093019B41
:100E00000D2B14D1009B022B0DD0009B022B0CD874
:100E1000009B002B03D0009B012B02D005E0012397
:100E200006E0012304E0012302E0012300E00023A7
:100E3000184602B0704700BF3001001034010010A6
:100E400082B0114B1B680193104B1B680093019BF0
:100E50000D2B14D1009B022B0DD0009B022B0CD824
:100E6000009B002B03D0009B012B02D005E0002348
:100E700006E0002304E0012302E0012300E0002358
:100E8000184602B0704700BF300100103401001056
:100E900008B5FFF7D5FF0346002B07D04FF010230E
:100EA0004FF08042D3F80832C2F8583500BF08BD71
:100EB00000BF044BD3F80034002BFAD000BF00BFB2
:100EC000704700BF00E0014000B583B00190054AC3
:100ED000019BC2F80435FFF7EBFF00BF03B05DF8DC
:100EE00004FB00BF00E00140024B034A1A6000BF50
:100EF000704700BF440000200090D00308B5FFF702
:100F000027FF0346002B0ED04FF080430022C3F88A
:100F10000C214FF080430022C3F810214FF0804392
:100F20000022C3F83825FFF73BFF0346002B76D09D
:100F30004FF080535E4AD3F80434C2F820354FF0A6
:100F400080535B4AD3F80834C2F824354FF08053FD
:100F5000574AD3F80C34C2F828354FF08053544A1E
:100F6000D3F81034C2F82C354FF08053504AD3F8E0
:100F70001434C2F830354FF080534D4AD3F818344A
:100F8000C2F834354FF08053494AD3F81C34C2F8C4
:100F900040354FF08053464AD3F82034C2F84435E8
:100FA0004FF08053424AD3F82434C2F848354FF00A
:100FB00080533F4AD3F82834C2F84C354FF0805361
:100FC0003B4AD3F82C34C2F850354FF08053384A9E
:100FD000D3F83034C2F854354FF08053344AD3F844
:100FE0003434C2F860354FF08053314AD3F8383486
:100FF000C2F864354FF080532D4AD3F83C34C2F820
:1010000068354FF080532A4AD3F84034C2F86C3523
:101010004FF08053264AD3F84434C2F87035FFF7B6
:10102000E7FE0346002B0DD04FF08043D3F8003489
:1010300003F00103002B05D04FF080436FF0010255
:10104000C3F800241B4BD3F888301A4A43F47003CA
:10105000C2F88830BFF34F8F00BFBFF36F8F00BF60
:10106000FFF716FF4FF01023D3F80032002B05DBFB
:101070004FF01023D3F80432002B15DA0120FFF7CC
:1010800023FF4FF010231222C3F80022FFF710FFB6
:101090004FF010231222C3F80422FFF709FF0020AB
:1010A000FFF712FFFFF740FEFFF71EFF00BF08BD6E
:1010B00000C0004000ED00E082B00190019B1B6881
:1010C0001F2B02D84FF0A04306E0019B1B6803F0E2
:1010D0001F02019B1A60024B184602B0704700BF06
:1010E0000003005000B585B00190084611461A462D
:1010F00003468DF803300B468DF8023013468DF809
:10110000013001AB1846FFF7D7FF03909DF803208D
:101110009DF802305B001A439DF801309B001A4392
:101120009DF818301B0242EA03019DF81C301B0495
:10113000019A1943039B02F5E07243F8221000BFA5
:1011400005B05DF804FB00B585B003900023019362
:10115000002300930023012201210398FFF7C2FF1F
:1011600000BF05B05DF804FB00B585B003900B46E9
:101170008DF80B309DF80B30002201920022009276
:10118000002200210398FFF7ADFF00BF05B05DF816
:1011900004FB00B585B0019001AB1846FFF78CFF4A
:1011A0000390019B012202FA03F31946039800F011
:1011B0002AF800BF05B05DF804FB00B585B00190CA
:1011C00001AB1846FFF778FF0390019B012202FA5A
:1011D00003F31946039800F020F800BF05B05DF84E
:1011E00004FB00B583B001900091009B002B03D15C
:1011F0000198FFF7E2FF02E00198FFF7CAFF00BF86
:1012000003B05DF804FB82B001900091019B009A4D
:10121000C3F8082500BF02B0704782B0019000916A
:10122000019B009AC3F80C2500BF02B07047000074
:1012300000B583B00190064A019B13441B7801213D
:101240001846FFF7CEFF00BF03B05DF804FB00BFF8
:101250009C39030000B583B00023019305E0019899
:10126000FFF7E6FF019B01330193019B032BF6D9A6
:1012700000BF00BF03B05DF804FB000000B583B001
:101280000023019309E0094A019B13441B78184687
:10129000FFF759FF019B01330193019B032BF2D907
:1012A000FFF7D8FF00BF03B05DF804FB9C390300D3
:1012B00000B583B00023019307E002230321184601
:1012C000FFF752FF019B01330193019B002BF4D0E8
:1012D00000BF00BF03B05DF804FB00B583B0019010
:1012E000019B03F00103002B01D0FFF7C7FF019B17
:1012F00003F00203002B01D0FFF7DAFF00BF03B0B9
:101300005DF804FB08B5024B1B68984700BF08BD99
:10131000440A002082B00190019B044A934201D10B
:10132000034B00E00023184602B070470020004045
:10133000440A002000B587B0019000910198FFF7A2
:10134000E9FF0390039B002B1ED000238DF817307C
:101350000020FFF7D9F9039B1B79002B03D0012351
:101360008DF8173005E0039B009A1A60039B012259
:101370001A710020FFF7D1F99DF81730002B03D028
:1013800011230493049B02E000230493049B18465A
:1013900007B05DF804FB84B001900B46ADF8023055
:1013A000BDF80230019A134400221A60BDF80230E1
:1013B000019A13441B680393039B00BF04B070475A
:1013C00082B001900B46ADF80230BDF80230019AB0
:1013D00013441B68002B14BF01230023DBB2184603
:1013E00002B0704782B00190019B1B681F2B02D88E
:1013F0004FF0A04306E0019B1B6803F01F02019B16
:101400001A60024B184602B0704700BF000300503C
:1014100000B585B0019001AB1846FFF7E3FF0390DC
:10142000019B012202FA03F31946039800F018F811
:1014300000BF05B05DF804FB00B585B0019001ABBD
:101440001846FFF7CFFF0390019B012202FA03F336
:101450001946039800F00EF800BF05B05DF804FBD4
:1014600082B001900091019B009AC3F8082500BF4B
:1014700002B0704782B001900091019B009AC3F8BE
:101480000C2500BF02B07047024A034B1B68136073
:1014900000BF7047000E0040B80A002000B583B0BE
:1014A0000190019BDB7FFF2B0ED0019B9B7F002BCC
:1014B00005D0019BDB7F1846FFF7BEFF04E0019BD0
:1014C000DB7F1846FFF7A4FF019B00225A77019BA0
:1014D00000221A72019B1B68019A02F10800019A0E
:1014E00052681146984700BF03B05DF804FB000046
:1014F00000B583B0019000914FF48C710198FFF713
:101500005FFF0346002B0DD0019B084A934201D197
:10151000FFF7BAFF4FF48C710198FFF73CFF00987A
:10152000FFF7BCFF00BF03B05DF804FB00F0024012
:1015300008B503490348FFF7DBFF00BF08BD00BF44
:101540004C0A00200030004008B503490348FFF76B
:10155000CFFF00BF08BD00BF700A0020003002406E
:1015600008B503490348FFF7C3FF00BF08BD00BF2C
:10157000940A002000F0024082B003468DF8073044
:101580009DF90730002B0CDB9DF8073003F01F029C
:1015900005499DF907305B09012000FA02F241F884
:1015A000232000BF02B0704700E100E082B0034694
:1015B00000918DF807309DF90730002B0ADB009B66
:1015C000DAB20C499DF907305201D2B20B4483F8CC
:1015D00000230BE0009BDAB207499DF8073003F0C7
:1015E0000F03043B5201D2B20B441A7600BF02B083
:1015F000704700BF00E100E000ED00E082B0019024
:10160000019B1B0B5BB2184602B0704700B583B05C
:1016100003460A468DF8073013468DF806309DF8CC
:1016200006209DF9073011461846FFF7BFFF00BF9F
:1016300003B05DF804FB00B583B003468DF80730B6
:101640009DF907301846FFF797FF00BF03B05DF81C
:1016500004FB00B583B00346ADF80630BDF8063094
:10166000184600F026F803461B68012B0CBF012327
:101670000023DBB2184603B05DF804FB00B585B06B
:101680000346ADF80630BDF80630184600F011F8F4
:1016900003461A4600231360BDF80630184600F0D2
:1016A00008F803461B680393039B00BF05B05DF871
:1016B00004FB82B00346ADF80630BDF8063003F1F6
:1016C000804303F5C043184602B0704782B00190D2
:1016D000034A019BC2F8043300BF02B0704700BF49
:1016E0000060004082B00190034A019BC2F80833B9
:1016F00000BF02B0704700BF0060004082B00190A0
:10170000034BD3F80423019B1340184602B07047E3
:101710000060004082B00190084A019B03F5A2736B
:1017200052F82330054943F00102019B03F5A273EF
:1017300041F8232000BF02B0704700BF00600040A6
:1017400082B00190084A019B03F5A27352F823303E
:10175000054923F00102019B03F5A27341F8232000
:1017600000BF02B0704700BF0060004084B003902B
:10177000029113468DF80730144A039B03F5A273B8
:1017800052F82330114923F44F3323F44073039A62
:1017900002F5A27241F822300C4A039B03F5A273B2
:1017A00052F82320029B1B0203F47C519DF8073062
:1017B0001B0403F440330B4304491A43039B03F512
:1017C000A27341F8232000BF04B0704700600040BE
:1017D00082B00190054A019B03F5A27352F82330B1
:1017E0001B0A03F03F03184602B070470060004038
:1017F00082B00190064A019B03F5A27352F8233090
:101800001B0C03F00303DBB2184602B0704700BFA5
:101810000060004084B00390029111461A460B46C6
:101820008DF8073013468DF80630184A039B03F5F0
:10183000A27352F82330154923F4991323F4F85373
:10184000039A02F5A27241F82230104A039B03F575
:10185000A27352F82320029B1B0203F47C519DF8D3
:1018600007301B0403F4403319439DF806301B0571
:1018700003F480130B4305491A43039B03F5A2733A
:1018800041F8232000BF04B0704700BF0060004053
:1018900082B00190019B1B681F2B02D84FF0A04320
:1018A00006E0019B1B6803F01F02019B1A60024BBC
:1018B000184602B0704700BF0003005000B585B065
:1018C0000190084611461A4603468DF803300B4630
:1018D0008DF8023013468DF8013001AB1846FFF742
:1018E000D7FF03909DF803209DF802305B001A4358
:1018F0009DF801309B001A439DF818301B0242EA04
:1019000003019DF81C301B04019A1943039B02F547
:10191000E07243F8221000BF05B05DF804FB00B58B
:1019200085B003900023019300230093002301223C
:1019300001210398FFF7C2FF00BF05B05DF804FB6B
:1019400000B585B003900B468DF80B309DF80B3039
:101950000022019200220092002200210398FFF74A
:10196000ADFF00BF05B05DF804FB00B585B0019088
:1019700001AB1846FFF78CFF0390019A039B02F519
:10198000E07253F8223023F002030293019A039B82
:1019900002F5E072029943F8221000BF05B05DF82D
:1019A00004FB00B585B001900B468DF8033001AB08
:1019B0001846FFF76DFF0390019A039B02F5E07252
:1019C00053F82230019A23F44031039B02F5E07270
:1019D00043F82210019A039B02F5E07253F822307B
:1019E0009DF8032012041146019A1943039B02F546
:1019F000E07243F8221000BF05B05DF804FB00B5AB
:101A000085B0019001AB1846FFF742FF0390019BA0
:101A1000012202FA03F31946039800F04BF800BFC5
:101A200005B05DF804FB00B585B0019001AB184628
:101A3000FFF72EFF0390019B012202FA03F31946E0
:101A4000039800F041F800BF05B05DF804FB00B555
:101A500085B0019001AB1846FFF71AFF0390039879
:101A600000F020F80246019B22FA03F303F0010381
:101A7000184605B05DF804FB00B585B0019001ABD8
:101A80001846FFF705FF0390019A039B02F5E072E9
:101A900053F822301B0C03F00303DBB2184605B0E9
:101AA0005DF804FB82B00190019BD3F81035184615
:101AB00002B0704782B001900091019B009AC3F878
:101AC000082500BF02B0704782B001900091019BD1
:101AD000009AC3F80C2500BF02B0704788B003908D
:101AE00002910192164A05AB92E8030083E80300D5
:101AF000039B079319E0079B9B0008AA134453F824
:101B00000C3CD3F82025019B1A60079B9B0008AA78
:101B1000134453F80C3C019A1268C3F82025019B2A
:101B200004330193079B01330793039A029B1344E9
:101B3000079A9A42DFD300BF00BF08B0704700BFCA
:101B4000AC39030000B585B0019001AB1846FFF732
:101B50009FFE0390019B012202FA03F31A46039BA6
:101B6000C3F8202500BF05B05DF804FB84B00190E8
:101B7000019B5B09029300230393029B002B03D07C
:101B8000029B012B04D007E04FF0FF33039303E0E7
:101B900040F2FF33039300BF019B03F01F03019347
:101BA000039A019B22FA03F303F00103002B14BFF5
:101BB00001230023DBB2184604B0704784B00190C3
:101BC0000091009B0393019BDB080293019B03F0B0
:101BD000070301930122019B02FA03F30399029A7E
:101BE0000A4412781340184604B0704784B001903C
:101BF0000091009B0393019BDB080293019B03F080
:101C000007030193039A029B13441B785AB20121E4
:101C1000019B01FA03F35BB2134359B2039A029B8F
:101C20001344CAB21A7000BF04B0704782B001906A
:101C3000074A019B1344243393F90030B3F1FF3F6B
:101C400014BF01230023DBB2184602B0704700BF67
:101C5000BC0A002082B001900C4A019B134424333B
:101C600093F90030002B09DB084A019B134424330D
:101C700093F90030072B01DC012300E0002303F07F
:101C80000103DBB2184602B0704700BFBC0A002057
:101C900082B00190064A019B1344243393F900302B
:101CA000072BCCBF01230023DBB2184602B07047DC
:101CB000BC0A002082B00190064A019B13442433E1
:101CC00093F90030DB43DBB2DB09DBB2184602B02C
:101CD000704700BFBC0A002084B0039002910192BB
:101CE0008DF80330029B59B20E4A039B13442433F0
:101CF0000A461A700B49029B019A41F823209DF86D
:101D0000033083F00103DBB2002B08D0029B083BB9
:101D1000039A51B2034A13440A4683F84E2000BF87
:101D200004B07047BC0A002082B00190044A019BB5
:101D300013442433FE221A7000BF02B0704700BF64
:101D4000BC0A002082B00190044A019B1344243352
:101D5000FF221A7000BF02B0704700BFBC0A00200B
:101D600000B583B0019004490198FFF73FFF00BF21
:101D700003B05DF804FB00BF0B0B002082B00190A4
:101D8000044A019B1344243393F90030184602B0EF
:101D9000704700BFBC0A002082B00190034A019B3B
:101DA00052F82330184602B0704700BFBC0A00202A
:101DB00084B00190074A019B13444E3393F90030DD
:101DC0008DF80F309DF80F3023F0C003184604B093
:101DD000704700BFBC0A002084B00190074A019BF5
:101DE00013444E3393F900308DF80F309DF80F30C7
:101DF0009B09DBB2184604B0704700BFBC0A002044
:101E000000B589B00390029113468DF80730FF2387
:101E10008DF81F309DF80730002B01D0002300E023
:101E2000082305939DF80730002B01D0082300E01C
:101E300009230493059B069314E00F4A069B52F86E
:101E40002330B3F1FF3F0AD19DF80730029A06997B
:101E50000398FFF741FF069B8DF81F3006E0069BB5
:101E600001330693069A049B9A42E6D39DF91F30EC
:101E7000184609B05DF804FBBC0A002082B0034696
:101E80008DF807309DF80730094A4FF0FF3142F8CE
:101E900023109DF80730072B07D99DF80730083B22
:101EA000034A1344FF2283F84E2000BF02B070475C
:101EB000BC0A002000B583B02D4B93F85530002BA1
:101EC00003D008230093009B4EE000238DF80730D9
:101ED00011E09DF807301846FFF748FE0346002B37
:101EE00004D09DF807301846FFF72CFF9DF8073007
:101EF00001338DF807309DF80730292BE9D90023ED
:101F00008DF8073009E09DF807301846FFF7B6FF57
:101F10009DF8073001338DF807309DF80730082B06
:101F2000F1D906220021134801F0E6FF1248FFF71D
:101F300065FB034607211846FFF768FB0E48FFF7CD
:101F40005DFB03461846FFF776FB4FF4BE70FFF7C4
:101F500095FB4FF00040FFF7B9FB054B012283F8DA
:101F6000552000230093009B184603B05DF804FB46
:101F7000BC0A00200B0B00200060004000B585B0BB
:101F800001900091002303930198FFF74FFE034651
:101F9000002B02D00823039334E0009B9B78002B96
:101FA00019D0012200210198FFF72AFF03468DF87E
:101FB0000B309DF90B30B3F1FF3F09D09DF90B00B9
:101FC000009B1A78009B5B780199FFF723FC05E0E2
:101FD0000423039302E00198FFF7A6FE039B002B66
:101FE00010D1009B5B78012B03D10198FFF707FD0F
:101FF00002E00198FFF717FD0198FFF790FC0198A8
:10200000FFF7AEFE039B184605B05DF804FB000029
:1020100000B587B0039002910192002305930398C5
:10202000FFF748FE0346002B02D00823059357E034
:10203000029B9B78C3F34003DBB21A4601990398D5
:10204000FFF7DEFE03468DF813309DF91330B3F130
:10205000FF3F43D0029B9B78C3F38003DBB283F046
:102060000103DBB2002B13D0029B9B7803F001032A
:10207000DBB2002B03D00398FFF777FC05E0029B4F
:102080005B7819460398FFF75BFC0398FFF768FE3F
:10209000029B9B7803F00203DBB2002B08D09DF972
:1020A0001300029B1B781A460399FFF75FFB17E0AA
:1020B0009DF91330083B0D4A134493F94E10029BCF
:1020C0001B789B015AB29DF91330083B0A4351B269
:1020D000064A13440A4683F84E2001E00423059380
:1020E000059B184607B05DF804FB00BFBC0A002042
:1020F00000B589B001900B468DF803300198FFF7C9
:10210000C7FD0346002B2AD00198FFF737FE034690
:10211000083B1846FFF760FE03468DF80F309DF828
:102120000F30032B0BD10198FFF791FC0346002BD6
:1021300001D0032300E002238DF81F3008E09DF852
:102140000F30012B01D1022300E003238DF81F3053
:102150009DF81F3019460198FFF723FC30E00198E5
:10216000FFF778FD0346002B2AD00198FFF706FE03
:1021700003460693069B9BB240339BB29B00ADF88F
:102180001630069B1846FFF7C5FABDF816301846FC
:10219000FFF774FA9DF80330002B11D00198FFF778
:1021A000EDFD03461846FFF7F7FD0490049B002B56
:1021B00006D00122069B02FA03F31846FFF786FABF
:1021C00000BF09B05DF804FB00B585B0019001982F
:1021D000FFF75EFD0346002B04D000210198FFF7B6
:1021E000E0FB15E00198FFF735FD0346002B0FD00B
:1021F0000198FFF7C3FD03460393039B1846FFF7BF
:102200009FFA0122039B02FA03F31846FFF76AFACA
:1022100000BF05B05DF804FB00B583B001900198E4
:10222000FFF715FC0346002B14BF01230023DBB28C
:10223000184603B05DF804FB00B585B00190019A23
:1022400002210020FFF74AFC002303930BE0039BCD
:102250009B00019A13441B68002B01D0012306E068
:10226000039B01330393039B012BF0D900231846F2
:1022700005B05DF804FB000000B587B001900023B5
:1022800005935BE0344A059B13444E3393F90030C9
:10229000B3F1FF3F4ED00598FFF78AFD04900199F6
:1022A0000498FFF78BFC0346002B44D00598FFF7FA
:1022B00093FD03468DF80F300498FFF7DDFB0346CE
:1022C0008DF80E309DF80E30022B01D1032300E073
:1022D00002238DF80D309DF80D3019460498FFF754
:1022E00060FB0498FFF72EFC0498FFF747FD0346B8
:1022F0001846FFF751FD0290029B002B1BD09DF862
:102300000F30032B0FD09DF80E30022B03D19DF818
:102310000F30012B07D09DF80E30032B0BD19DF809
:102320000F30022B07D19DF80F20029B1146049815
:10233000984700E000BF059B01330593059B002BE8
:10234000A0D00198FFF778FF0346002B97D100BF7C
:1023500000BF07B05DF804FBBC0A002000B58BB0DD
:102360000023089301AB00221A605A604FF4807377
:10237000ADF81A30012309930023079321E0BDF83B
:102380001A301846FFF765F90346002B0ED009985E
:10239000FFF7B4F90346002B08D0BDF81A301846F1
:1023A000FFF76CF9089A099B13430893099B5B009C
:1023B0000993BDF81A300433ADF81A30079B013386
:1023C0000793079B072BDAD94FF4BE70FFF741F94B
:1023D0000346002B0DD04FF4BE70FFF74FF9089B5A
:1023E00043F00043089301AB1A4602210020FFF797
:1023F00075FB089BDBB2002B29D001230993002336
:10240000079321E0099A089B1340002B16D00798E8
:10241000FFF7DEF905900798FFF7EAF903468DF814
:1024200013300798FFF7B8FC0390039B002B05D0EF
:102430009DF81320039B114605989847099B5B0064
:102440000993079B01330793079B072BDAD9089B56
:10245000002B03DA01AB1846FFF70EFF00BF0BB0ED
:102460005DF804FB82B003468DF807309DF9073014
:10247000002B0CDB9DF8073003F01F0205499DF986
:1024800007305B09012000FA02F241F8232000BF67
:1024900002B0704700E100E082B0034600918DF881
:1024A00007309DF90730002B0ADB009BDAB20C499C
:1024B0009DF907305201D2B20B4483F800230BE0A0
:1024C000009BDAB207499DF8073003F00F03043B85
:1024D0005201D2B20B441A7600BF02B0704700BF5F
:1024E00000E100E000ED00E082B00190019B03F00C
:1024F0006043B3F1005F0CBF01230023DBB2184639
:1025000002B0704782B00190019B1B0B5BB2184672
:1025100002B0704700B583B003460A468DF8073015
:1025200013468DF806309DF806209DF907301146B8
:102530001846FFF7B1FF00BF03B05DF804FB00B51C
:1025400083B003468DF807309DF907301846FFF732
:1025500089FF00BF03B05DF804FB84B001900B4617
:10256000ADF80230BDF80230019A134400221A601F
:10257000BDF80230019A13441B680393039B00BF0C
:1025800004B0704782B001900B46ADF80230BDF840
:102590000230019A13441B68002B14BF012300234F
:1025A000DBB2184602B0704782B001900091019BE7
:1025B000D3F80022009B1A43019BC3F8002200BFFE
:1025C00002B0704782B001900091019BD3F80022C5
:1025D000009BDB431A40019BC3F8002200BF02B0FE
:1025E000704782B001900091019B009AC3F80423C8
:1025F00000BF02B0704782B001900091019B009A29
:10260000C3F8082300BF02B0704784B00190019B5B
:10261000D3F880340393019B039AC3F88024039B6F
:10262000184604B0704782B00190019B0822C3F89D
:10263000002500BF02B0704784B003900291019260
:10264000039B029AC3F80C25039B019AC3F8142537
:1026500000BF04B0704784B0039002910192039BC5
:10266000029AC3F80825039B019AC3F8102500BFFE
:1026700004B0704782B001900B468DF803309DF88E
:102680000330019A134401221A6000BF02B0704760
:1026900082B001900B468DF8033013468DF802305E
:1026A0009DF803209DF802301343DBB21A46019BCC
:1026B000C3F86C2500BF02B0704782B00190009152
:1026C000019B009AC3F8242500BF02B0704784B074
:1026D000039002910192029A039BC3F84425039B45
:1026E000019AC3F8482500BF04B0704782B001903A
:1026F000019BD3F84C35184602B0704784B0039064
:1027000002910192029A039BC3F83425039B019A1C
:10271000C3F8382500BF04B0704782B00190019B18
:10272000D3F83C35184602B07047000082B00190E3
:10273000019B1B681F2B02D84FF0A04306E0019BB2
:102740001B6803F01F02019B1A60024B184602B07F
:10275000704700BF0003005000B585B001900846E7
:1027600011461A4603468DF803300B468DF80230A9
:1027700013468DF8013001AB1846FFF7D7FF0390E1
:102780009DF803209DF802305B001A439DF801304C
:102790009B001A439DF818301B0242EA03019DF882
:1027A0001C301B04019A1943039B02F5E07243F8A5
:1027B000221000BF05B05DF804FB00B585B00390A2
:1027C0000023019300230093002301220121039899
:1027D000FFF7C2FF00BF05B05DF804FB00B585B090
:1027E00003900B468DF80B309DF80B3000220192C0
:1027F00000220092002200210398FFF7ADFF00BFE6
:1028000005B05DF804FB00B585B0019001AB18463A
:10281000FFF78CFF0390019B012202FA03F3194694
:10282000039800F004F800BF05B05DF804FB82B027
:1028300001900091019B009AC3F8082500BF02B0E7
:10284000704700B583B001900091009B1B68B3F105
:10285000FF3F09D0009B1B681846FFF7D4FF009B81
:102860001B681846FFF7A9FF009B5B68B3F1FF3FA9
:1028700005D0009B5B6800211846FFF7AFFF019B66
:102880001A68009B9B6919461046FFF716FF019BCB
:102890001868009B597D009B1B7D1A46FFF7F8FEC8
:1028A000019B1868009B1968009B5B681A46FFF73C
:1028B000C3FE009B1B7D012B22D1009B9B68B3F1C3
:1028C000FF3F05D0009B9B6800211846FFF786FF5D
:1028D000009BDB68B3F1FF3F09D0009BDB68184623
:1028E000FFF791FF009BDB681846FFF766FF019B2F
:1028F0001868009BD968009B9B681A46FFF7ABFEDF
:1029000000BF03B05DF804FB00B583B001900B4637
:102910008DF80330019B1B684FF488711846FFF750
:102920001CFE019B1B684FF490711846FFF715FEC3
:10293000019B1B684FF492711846FFF70EFE019B36
:102940001B684FF4A2711846FFF707FE019B1B6836
:102950004FF4AC711846FFF700FE019B1B680F494E
:102960001846FFF73EFE019B1B681846FFF7CAFD9D
:1029700003461A469DF8033019461046FFF7CAFD74
:10298000019B1B681846FFF7BDFD03461846FFF77D
:10299000D6FD00BF03B05DF804FB00BF100342008A
:1029A00000B587B0039002910192039B1B791A46F0
:1029B0001346DB0013449B00264A13440493002370
:1029C0000593049B93F82030002B03D00823059334
:1029D000059B3AE0039B1A68039B1B7919461E4B23
:1029E00053F8213019461046FEF7A4FC0346002B8D
:1029F00003D011230593059B27E002990398FFF765
:102A000020FF049B019A5A60029B1A69049B1A607A
:102A1000049B5B68002B05D0029B1B7F1946039823
:102A2000FFF772FF039B1B681846FFF7FCFD049B32
:102A300000229A61049B0022DA61049B00225A6101
:102A4000049B012283F82020059B184607B05DF8FF
:102A500004FB00BF140B0020C439030000B589B08B
:102A6000039002910192039B1B791A461346DB00E7
:102A700013449B00434A134405930298FFF734FD27
:102A8000034683F00103DBB2002B03D0102307932E
:102A9000079B73E0039800F077F80346002B03D000
:102AA00011230793079B69E0059B019A5A61059BD7
:102AB000029A9A6000230793039B1B684FF490715E
:102AC0001846FFF74AFD039B1B684FF4AC7118468C
:102AD000FFF743FD039B1868059B9968059B5B699D
:102AE0001A46FFF7F4FD039B1B6808211846FFF701
:102AF000C1FD059B5B68002B3FD1039B1B684FF416
:102B000090711846FFF73EFD03468DF81A30039B7F
:102B10001B684FF4AC711846FFF734FD03468DF87F
:102B20001B309DF81A3083F00103DBB2002B06D076
:102B30009DF81B3083F00103DBB2002BDDD19DF843
:102B40001B30002B02D00F23079313E0039B1B685D
:102B50000C211846FFF78EFD00BF039B1B684FF446
:102B6000AC711846FFF70EFD034683F00103DBB29C
:102B7000002BF2D1059B00225A61079B184609B031
:102B80005DF804FB140B002082B00190019B1B79BF
:102B90001946084A0B46DB000B449B0013441433D0
:102BA0001B68002B14BF01230023DBB2184602B0C0
:102BB000704700BF140B002000B58BB0039002914A
:102BC0000192039B1B791A461346DB0013449B00BA
:102BD0006F4A134406930298FFF786FC034683F07E
:102BE0000103DBB2002B03D010230893089BCAE03B
:102BF00000238DF81F30069B5B68002B06D0039BDB
:102C00001B684FF404711846FFF7F5FC069B9B699F
:102C1000002B15D0069BDB69002B0ED0069B5B6852
:102C2000002B06D0039B1B684FF404711846FFF776
:102C3000D8FC11230893089BA5E001238DF81F30D1
:102C40009DF81F3083F00103DBB2002B09D0069BF7
:102C5000019A9A61069B029ADA60069B0022DA6169
:102C600005E0069B029A1A61069B019ADA6100232D
:102C70000893039B1B684FF488711846FFF76DFC9F
:102C8000039B1B684FF4A2711846FFF766FC039B79
:102C90001B68019A02991846FFF730FD9DF81F3016
:102CA00083F00103DBB2002B06D0039B1B680021DD
:102CB0001846FFF7DFFC05E0039B1B682021184640
:102CC000FFF772FC039B1B791946314A0B46DB0068
:102CD0000B449B00134404331B68002B4BD1039B14
:102CE0001B684FF488711846FFF74CFC03468DF8BB
:102CF0002730039B1B684FF4A2711846FFF742FC74
:102D000003468DF81730039B1B684FF492711846E9
:102D1000FFF738FC03468DF816309DF8273083F016
:102D20000103DBB2002B0DD09DF8173083F00103B7
:102D3000DBB2002B06D09DF8163083F00103DBB226
:102D4000002BCCD1039B1B791946114A0B46DB00A3
:102D50000B449B001344183300221A609DF8163070
:102D6000002B01D0032308939DF81730002B09D0C6
:102D70000F23089306E0039B1B684FF40471184669
:102D8000FFF72FFC089B18460BB05DF804FB00BF53
:102D9000140B002000B589B0039002910192012329
:102DA0008DF81030029B0693019B0593039B5B6893
:102DB000039A116804AA1046984700BF09B05DF84D
:102DC00004FB00B587B00190009100238DF8083016
:102DD000009B0493019B9B680393019B00225A6113
:102DE000019B5B68019A116802AA1046984700BFD0
:102DF00007B05DF804FB00B589B0019000914FF475
:102E000092710198FFF7BEFB0346002B22D04FF4CE
:102E100092710198FFF7A1FB02238DF80830019809
:102E2000FFF7F3FB034605930198FFF776FC034693
:102E30000493009BDB680393009B00229A61009B34
:102E40000022DA61009B5B68009A116802AA1046B2
:102E500098473BE04FF488710198FFF793FB0346D6
:102E6000002B33D04FF488710198FFF776FB01985F
:102E7000FFF753FC0790009B9B69079A9A4225D164
:102E8000009BDB69002B17D0009BDB680693202199
:102E90000198FFF797FB009BDA69009B9A61009B02
:102EA0001A69009BDA60009B0022DA61069A079992
:102EB0000098FFF76FFF09E0009B00229A61009BDA
:102EC000DB681A4607990098FFF764FF4FF4A27178
:102ED0000198FFF757FB0346002B18D04FF4A2715F
:102EE0000198FFF73AFB009B9B69002B0FD0009BDA
:102EF00000229A61009B0022DA610198FFF70DFC25
:102F00000146009BDB681A460098FFF743FF4FF429
:102F100090710198FFF736FB0346002B14D04FF455
:102F200090710198FFF719FB0C210198FFF7A2FBA4
:102F3000009B5B69002B07D00198FFF7D7FB034686
:102F400019460098FFF73DFF4FF4AC710198FFF769
:102F500019FB0346002B10D04FF4AC710198FFF71A
:102F6000FCFA009B5B69002B07D00198FFF7BEFBC2
:102F7000034619460098FFF724FF00BF09B05DF82B
:102F800004FB000008B503490348FFF734FF00BF06
:102F900008BD00BF140B00200020004082B0034693
:102FA0008DF807309DF90730002B0CDB9DF80730BA
:102FB00003F01F0205499DF907305B09012000FA63
:102FC00002F241F8232000BF02B0704700E100E0A8
:102FD00082B0034600918DF807309DF90730002B31
:102FE0000ADB009BDAB20C499DF907305201D2B2DC
:102FF0000B4483F800230BE0009BDAB207499DF8ED
:10300000073003F00F03043B5201D2B20B441A768F
:1030100000BF02B0704700BF00E100E000ED00E03B
:1030200082B00190019B1B0B5BB2184602B0704747
:1030300000B583B003460A468DF8073013468DF875
:1030400006309DF806209DF9073011461846FFF717
:10305000BFFF00BF03B05DF804FB00B583B00346BB
:103060008DF807309DF907301846FFF797FF00BF2E
:1030700003B05DF804FB84B001900B46ADF802305C
:10308000BDF80230019A134400221A60BDF80230E4
:10309000019A13441B680393039B00BF04B070475D
:1030A00082B001900B46ADF80230BDF80230019AB3
:1030B00013441B68002B14BF01230023DBB2184606
:1030C00002B0704782B001900091019B009AC3F852
:1030D000042300BF02B0704782B001900091019BB1
:1030E000D3F80423009B1340002B14BF01230023BB
:1030F000DBB2184602B0704782B001900091019B8C
:10310000009AC3F8082300BF02B0704784B0019052
:10311000019BD3F880340393019B039AC3F8802466
:10312000039B184604B0704782B00190019B0422B3
:10313000C3F8002500BF02B0704784B0039002912D
:103140000192039B019AC3F81425039B029AC3F8CA
:103150000C2500BF04B0704784B003900291019227
:10316000039B029AC3F80825039B019AC3F8102514
:1031700000BF04B0704782B00190019BD3F81835AE
:10318000DBB2184602B0704782B001900B468DF852
:1031900003309DF80320019BC3F81C2500BF02B03B
:1031A000704782B001900B468DF803309DF80330D4
:1031B000019A134401221A6000BF02B0704782B026
:1031C00001900B468DF8033013468DF802309DF8C0
:1031D00003209DF802301343DBB21A46019BC3F86B
:1031E0006C2500BF02B0704782B001900091019B36
:1031F000009AC3F8242500BF02B0704782B0019046
:10320000019B1B681F2B02D84FF0A04306E0019BD7
:103210001B6803F01F02019B1A60024B184602B0A4
:10322000704700BF0003005000B585B0019008460C
:1032300011461A4603468DF803300B468DF80230CE
:1032400013468DF8013001AB1846FFF7D7FF039006
:103250009DF803209DF802305B001A439DF8013071
:103260009B001A439DF818301B0242EA03019DF8A7
:103270001C301B04019A1943039B02F5E07243F8CA
:10328000221000BF05B05DF804FB00B585B00390C7
:1032900000230193002300930023012201210398BE
:1032A000FFF7C2FF00BF05B05DF804FB00B585B0B5
:1032B00003900B468DF80B309DF80B3000220192E5
:1032C00000220092002200210398FFF7ADFF00BF0B
:1032D00005B05DF804FB00B585B0019001AB184660
:1032E000FFF78CFF0390019B012202FA03F31946BA
:1032F000039800F004F800BF05B05DF804FB82B04D
:1033000001900091019B009AC3F8082500BF02B00C
:10331000704700B583B001900091009B1B68B3F12A
:10332000FF3F09D0009B1B681846FFF7D4FF009BA6
:103330001B681846FFF7A9FF009B5B68B3F1FF3FCE
:1033400005D0009B5B6800211846FFF7AFFF019B8B
:103350001A68009B9B6919461046FFF745FF019BC1
:103360001868009B597D009B1B7D1A46FFF727FFBD
:10337000019B1868009B1968009B5B681A46FFF761
:10338000DCFE009B1B7D012B22D1009B9B68B3F1CF
:10339000FF3F05D0009B9B6800211846FFF786FF82
:1033A000009BDB68B3F1FF3F09D0009BDB68184648
:1033B000FFF791FF009BDB681846FFF766FF019B54
:1033C0001868009BD968009B9B681A46FFF7C4FEEB
:1033D00000BF03B05DF804FB00B583B001900B465D
:1033E0008DF80330019B1B684FF48E711846FFF770
:1033F00042FE019B1B684FF4A2711846FFF73BFE8B
:10340000019B1B680E491846FFF75CFE019B1B6879
:103410001846FFF705FE03461A469DF80330194685
:103420001046FFF705FE019B1B681846FFF7F8FDE5
:1034300003461846FFF711FE00BF03B05DF804FB1A
:103440008000020000B587B0039002910192039BB7
:103450001B791A462C2302FB03F3284A13440493D6
:1034600000230593049B93F82A30002B03D00823F4
:103470000593059B3EE0039B1A68039B1B79194645
:103480001F4B53F8213019461046FDF753FF0346F2
:10349000002B03D011230593059B2BE00299039881
:1034A000FFF737FF049B019A5A60029B1A69049B3D
:1034B0001A60049B5B68002B05D0029B1B7F19469A
:1034C0000398FFF789FF039B1B681846FFF72CFE44
:1034D000049B00229A61049B0022DA61049B002273
:1034E00083F82920049B00225A61049B012283F85F
:1034F0002A20059B184607B05DF804FB380B002016
:10350000D039030000B585B0019000914FF48E7161
:103510000198FFF7B0FD009B9A68009B1B6A13445B
:103520001B788DF80F30009B1B6A5A1C009B1A6297
:103530009DF80F3019460198FFF726FE00BF05B031
:103540005DF804FB00B585B001900091009B5B69BC
:10355000039316E0009B93F82830DBB2002B01D0D8
:10356000002314E04FF48E710198FFF799FD034694
:1035700083F00103DBB2002BECD100990198FFF737
:10358000C1FF009B1B6A039A9A42EBD8012318469D
:1035900005B05DF804FB000000B587B00390029110
:1035A0000192039B1B791A462C2302FB03F32F4A3B
:1035B00013440493039800F05BF80346002B03D0F8
:1035C00011230593059B4CE0049B019A5A61049BCF
:1035D000029A9A60049B00221A62049B002283F8DC
:1035E000282000230593039B1B684FF48E71184617
:1035F000FFF741FD039B1B6808211846FFF7D1FD2B
:10360000039B1B6804991846FFF77CFF049B5B68CB
:10361000002B25D1039B1B6804991846FFF792FFE6
:10362000034683F00103DBB2002B02D00F23059386
:1036300013E000BF039B1B684FF48E711846FFF721
:103640002FFD034683F00103DBB2002BF2D1039B75
:103650001B680C211846FFF7A4FD049B00225A6149
:10366000059B184607B05DF804FB00BF380B00202F
:1036700082B00190019B1B791946074A2C2301FB5C
:1036800003F3134414331B68002B14BF01230023DE
:10369000DBB2184602B07047380B002000B583B08B
:1036A0000190019B1B684FF492711846FFF7E3FCF1
:1036B000019B1B684FF484711846FFF7DCFC019BEB
:1036C0001B6800211846FFF76CFD00BF03B05DF8D2
:1036D00004FB10B582B001900091009B9B69002B08
:1036E00008D14FF484710198FFF7C5FC0198FFF7EA
:1036F00042FD13E04FF484710198FFF7BCFC009B7E
:10370000DA68009B5B6AD4180198FFF734FD034622
:103710002370009B5B6A5A1C009B5A6202B010BD6A
:1037200000B589B0039002910192039B1B791A4660
:103730002C2302FB03F36E4A1344059300238DF8F8
:103740001330059B5B68002B06D0039B1B684FF46E
:1037500001711846FFF7D0FC059B9B69002B15D023
:10376000059BDB69002B0ED0059B5B68002B06D008
:10377000039B1B684FF401711846FFF7A3FC11234C
:103780000793079BB0E001238DF813309DF81330A9
:1037900083F00103DBB2002B0CD0059B019A9A61E8
:1037A000059B029ADA60059B00225A62059B002263
:1037B000DA6105E0059B029A1A61059B019ADA61BC
:1037C000059B93F8293083F00103DBB2002B09D06D
:1037D0009DF8133083F00103DBB2002B02D0039875
:1037E000FFF75CFF059B5B68002B73D1039B1B6895
:1037F0004FF4A2711846FFF73EFC039B1B684FF481
:1038000092711846FFF74CFC03468DF81930039B64
:103810001B684FF484711846FFF742FC03468DF88D
:103820001B30039B1B684FF4A2711846FFF738FC4E
:1038300003468DF81A309DF81B3083F00103DBB28C
:10384000002B0DD09DF81A3083F00103DBB2002B62
:1038500006D09DF8193083F00103DBB2002BCCD1E8
:103860009DF81930002B0FD19DF81A30002B0BD189
:10387000039B1B6805991846FFF72BFF059B9A6968
:10388000059B5B6A9A42B8D8059B00229A619DF815
:103890001930002B03D003230793079B24E09DF8E6
:1038A0001A30002B03D00F230793079B1CE0059BC6
:1038B00093F82930002B06D0039B1B680021184683
:1038C000FFF76FFC0DE0039B1B6804211846FFF710
:1038D00068FC06E0039B1B684FF401711846FFF774
:1038E000F1FB00230793079B184609B05DF804FB22
:1038F000380B002000B589B003900291019201239A
:103900008DF81030029B0693019B0593039B5B6827
:10391000039A116804AA1046984700BF09B05DF8E1
:1039200004FB00B587B00190009100238DF80830AA
:10393000009B0493019B9B680393019B00225A61A7
:10394000019B5B68019A116802AA1046984700BF64
:1039500007B05DF804FB00B58BB0019000914FF407
:1039600000710198FFF7B8FB0346002B39D04FF4E4
:1039700092710198FFF794FB0346002B31D04FF46E
:1039800092710198FFF777FB4FF401710198FFF7EF
:10399000B3FB009B93F8293083F00103DBB2002BCB
:1039A00003D004210198FFF7FCFB02238DF80C30B3
:1039B0000198FFF7ABFB03460693009B9B690593B9
:1039C000009BDB680493009B00229A61009B00220D
:1039D000DA61009B5B68009A116803AA1046984759
:1039E00052E004210198FFF777FB0346002B4BD0F0
:1039F0004FF484710198FFF753FB0346002B43D02B
:103A000000990198FFF765FE009B9A69009B5B6A2D
:103A10009A4239D1009BDB69002B19D0009BDB68EF
:103A20000993009B5B6A0893009BDA69009B9A618B
:103A3000009B1A69009BDA60009B0022DA61009B00
:103A400000225A62099A08990098FFF753FF1BE079
:103A5000009B93F8293083F00103DBB2002B03D0E5
:103A600004210198FFF79DFB4FF401710198FFF7C6
:103A700043FB009B00229A61009B596A009BDB6814
:103A80001A460098FFF736FF4FF48E710198FFF742
:103A900007FB0346002B24D0009B5B690793009B28
:103AA0001B6A079A9A420DD9009B93F82830DBB223
:103AB00083F00103DBB2002B04D000990198FFF7DB
:103AC00021FD0EE04FF48E710198FFF7D4FA009BB0
:103AD0005B69002B05D0009B5B6919460098FFF7D6
:103AE00020FF4FF4A2710198FFF7DAFA0346002B8A
:103AF0001CD04FF4A2710198FFF7BDFA009B93F818
:103B00002930002B03D000210198FFF74AFB009BCE
:103B10009B69002B0AD0009B00229A61009B596A86
:103B2000009BDB681A460098FFF7E4FE00BF0BB06D
:103B30005DF804FB08B503490348FFF70CFF00BF1D
:103B400008BD00BF380B00200020004000B589B040
:103B500001900091009B0793019B1B788DF80C301E
:103B6000019B5B680493019B9B68DBB28DF814306A
:103B7000019BDB680693074A079B52F823300649EE
:103B8000079A51F8221003AA1046984700BF09B0BF
:103B90005DF804FB640B00206C0B002000B589B0BD
:103BA00001900091009B0793019B1B788DF80C30CE
:103BB000019B5B680493019B9B68DBB28DF814301A
:103BC000019BDB680693074A079B52F8233006499E
:103BD000079A51F8221003AA1046984700BF09B06F
:103BE0005DF804FB640B00206C0B002030B58FB037
:103BF000039002910192039B1B780C9326490C9B26
:103C0000019A41F82320029B1A6924490C9B41F830
:103C10002320029B5B7F1946214A0C9B13440A46D2
:103C20001A70029B04AC1D460FCD0FC495E80F001F
:103C300084E80F000C9B089300230D93039B1B78D3
:103C40001A46174B9B5C002B0DD0039B181D019B44
:103C5000002B01D0134A00E0002204AB1946FEF706
:103C60009FFE0D9014E0039B1B781A460C4B9B5C47
:103C7000002B0DD1039B03F10C00019B002B01D005
:103C8000094A00E0002204AB1946FFF7DBFB0D9068
:103C90000D9B18460FB030BD640B00206C0B00204C
:103CA000740B00204D3B02009D3B02000048704712
:103CB000780B002070B5041E06DB002C1DDD0026ED
:103CC00000200F490F4D06E064420126F8E764101A
:103CD0000835002C07DD14F0010FF8D0D5E90023DA
:103CE00001F096FBF3E72EB102460B460020044993
:103CF00001F02AFC41EC100B70BD00200049F9E7EF
:103D00000000F03F103A030010B504460846A268D0
:103D10004AB12368616803F1010C8C4508BF00209B
:103D20008B4208D2D054E3682BB12168626891427B
:103D300001D22146984723680133236010BD70B536
:103D40004C1E09D41646C5B229463046FFF7DCFFA3
:103D5000013CB4F1FF3FF7D170BD10F0100F08D156
:103D600008B510F4007F14BF30202020FFF7E7FFD4
:103D700008BD70470028B8BF4042704700B5FFF744
:103D800095FF024B18445DF804FB00BF08000000DB
:103D900038B5204B204A9B1A102B39D9044601F024
:103DA000A7F904F1130020F00F021C4B186858B358
:103DB0004FF0FF340025294611E041B103680B6044
:103DC000044644F8042B01F094F9204638BD0168FC
:103DD000124B1960F4E70368014653B11846436873
:103DE0009342EAD09342F6D9A3423CBF1C46054613
:103DF000F1E74DB16B689B1A6B60A31AEC18EA509F
:103E000001F077F90434E0E701F073F90024DCE70E
:103E10000024DAE7982B0020980B00204C000020AB
:103E2000054B1A68054943F2390001FB020018608E
:103E3000C0F30E40704700BF480000206D4EC641E1
:103E40000CB400B587B008AA52F8043B0592039061
:103E5000002004900291194601A800F0D5F807B09F
:103E60005DF804EB02B07047037853B159B10144D7
:103E7000034613F8012F12B18B42FAD10B46181AE0
:103E800070470346FBE70346F9E710B584B00C46DC
:103E9000114602900022039201941A46684600F0EF
:103EA000B3F804B010BD844640EA010313F0030FD9
:103EB00018D18446202A0BD32DE9F007B1E8F80782
:103EC000A0E8F807A2F12002202AF7D2BDE8F00707
:103ED000042A07D351F8043B40F8043BA2F1040242
:103EE000042AF7D2002A05D011F8013B00F8013B63
:103EF000013AF9D1604670478446002A2DD010F06F
:103F0000030F04D000F8011B013A26D0F7E7C9B22D
:103F100041EA012141EA0141202A12D3A2F1200203
:103F20002DE9F0030B460C460D460E460F4688461B
:103F30008946A0E8FA03203AFBD2BDE8F00320321C
:103F40000BD0042A05D340F8041B043A05D0042AF8
:103F5000F9D200F8011B013AFBD1604670470246D6
:103F600010F0030F16D111F0030F13D12DE9F0005B
:103F70004FF001374FF0803351F8044BA4EB0705A5
:103F800025EA04051D4002D142F8044BF4E7A1F1F3
:103F90000401F0BC11F8013B02F8013B002BF9D100
:103FA000704700F1010110F0030F11D010F8012B40
:103FB000002A23D010F0030F0AD010F8012B002A9A
:103FC0001CD010F0030F03D010F8012B002A15D0DD
:103FD0002DE970004FF001324FF0803350F8044B60
:103FE000A4EB020525EA04051D4000D1F6E7A0F187
:103FF000040070BC10F8012B002AFBD1A0EB0100DB
:1040000070470000000000002DE9F04F2DED088BF7
:1040100093B082460992002303600C4614F8011BFA
:10402000002900F0E9879FED9C9B9FED9DBB9FEDD4
:104030009EAB4F4600F0D2BF002507E05E2869D155
:1040400045F4805501E045F040051C46234613F831
:10405000010B3028F2D81F2837D9A0F12002102AEE
:1040600033D801A151F822F047400200CB400200B2
:10407000CB400200AD400200CB400200CB4002002A
:10408000CB400200B3400200CB400200CB40020014
:10409000CB400200B9400200CB400200BF4002000A
:1040A000CB400200CB400200C540020045F0800535
:1040B000CBE745F40045C8E745F02005C5E745F0E6
:1040C0001005C2E745F40075BFE72A2822D1099AF6
:1040D000111D09911268002ABCBF524245F010051B
:1040E0001878A31C22EAE27204922E2827D0002618
:1040F000742848D07A2846D06A2800F0C5806C28F9
:1041000000F0D6804C2800F0E180682800F0EF80B5
:104110009B463BE0A0F13002D2B2092A88BF0022C0
:10412000E0D8002202EB8202303800EB420213F8A2
:10413000010BA0F13001C9B20929F3D9D2E71878EF
:104140002A280AD1099A111D099116685878023354
:10415000002ECDDB45F48075CAE70133A0F13002B3
:10416000D2B2092A88BF0026F4D8002606EB8606BC
:10417000303800EB460613F8010BA0F13002D2B242
:10418000092AF3D9E4E79B461BF8010B782800F2D3
:10419000A080DFE810F043079E009E009E009E0076
:1041A0009E009E009E009E009E009E009E009E001F
:1041B0009E009E009E009E009E009E009E009E000F
:1041C0009E009E009E009E009E009E009E009E00FF
:1041D0009E009E009E009E009E009E009E009E00EF
:1041E000BA009E009E009E009E009E009E009E00C3
:1041F0009E009E009E009E009E009E009E009E00CF
:104200009E009E009E009E009E009E009E009E00BE
:104210009E009E009E009E009E009E009E009E00AE
:104220000B0226022B029E009E009E009E009E0016
:104230009E009E009E009E009E009E009E009E008E
:104240009E009E009E004E019E009E009E009E00CD
:104250009E009E009E009E009E009E00C000A40145
:104260000D0228022D029E00A4019E009E009E00C9
:104270009E00D100900128019E009E00EC009E004F
:104280009C019E009E00500145F002059B461BF8D4
:10429000010B7BE7AFF30080000000000000E03F6F
:1042A0000000000000005940A0C8EB85F3CCE17F7E
:1042B00018786C2804D003F1010B45F0010565E77F
:1042C00045F0020503F1020B58785FE745F0010560
:1042D0009B46B24B1C68002C00F07C8609AB019316
:1042E0000096049B2A465146A04700F073BE1878FA
:1042F000682804D003F1010B45F0040546E745F0BA
:10430000080503F1020B587840E725215046FFF7D6
:10431000FBFC00F05FBE099B1A1D09921C78049BF0
:1043200003F1FF38524641462846FFF716FD214665
:104330005046FFF7E9FC47E015F0080F08D0DAF81F
:104340000020099B191D09911B681A7000F042BEDC
:1043500015F0020F099B03F1040209921B68DAF8B9
:1043600000201A601CBF00225A6000F033BE099B77
:104370001A1D09921B6802932B468948029A002A4B
:1043800018BF1046029023F4007513F4807F26D0E6
:104390003146FFF769FD0446049BA3EB040852462F
:1043A00041462846FFF7D9FC671E6CB1DDE902677C
:1043B0003346013619785046FFF7A6FC013CF7D189
:1043C000CDE902674FF0FF3715F0100F00F00286BD
:1043D000524641462020FFF7B2FC00F0FBBDFFF73C
:1043E000E0FD0446D8E709990B1D09930A680023EC
:1043F00010461946CDE9020115F0800F18BF23239E
:10440000059345F480750826DDE902783946424671
:1044100043463B4300F0BB850BAF002405F4005C32
:10442000DFF88081DFF880E16346AC461D4600F08E
:1044300061BD45F4005515F0800F08D043F27802B5
:1044400043F25803782818BF1A46059201E000236A
:10445000059315F4807F01D025F4007515F4804F85
:1044600064D015F0020F42D0099B073323F00703F5
:1044700003F108020992D3E90034CDE9023415F0C2
:10448000040F3FD0DDE9022314B242F3C0312246CB
:104490000B46CDE90223DDE902784246002A3BDAE9
:1044A0007B421C4668EB480122460B46CDE90223BD
:1044B0002D23059352E015F0800F0CBF002330230D
:1044C000059315F4807FC9D025F40075C6E715F46F
:1044D000807F09D025F4007500230593BEE745F4DD
:1044E000804500230593B9E700230593B6E7099BB0
:1044F0001A1D09921B681C46D91722460B46CDE9A6
:104500000223BCE715F0080FC5D09DF80840002134
:1045100022460B46CDE9022315F0200F3BD115F0C2
:10452000400F059B18BF2023059317E015F0020FDD
:104530001CD0099B073323F0070303F108020992FB
:10454000D3E90034CDE9023415F0040F18D0BDF8DA
:104550000840002122460B46CDE9022315F4807F56
:1045600000F0448425F4007500F041BC099B1A1D3D
:1045700009921C68002122460B46CDE90223E3E79D
:1045800015F0080FEAD09DF80840002122460B469E
:10459000CDE90223E2E72B230593DFE7780B002028
:1045A000583A0300E4390300F439030045F4005598
:1045B00045F48068099B073323F0070303F10802E1
:1045C000099293ED008B8DED028B18F4807F12D051
:1045D00096B908F44066B6F5406F14BF0026012670
:1045E0000AE045F4005545F40068E3E745F400555A
:1045F00045F44068DEE70626B0EE480AF0EE680AA9
:1046000001F064F9002840F0CB80B0EE480AF0EEEB
:10461000680A01F065F90890002840F0DE80B0EEED
:10462000480AF0EE680A01F065F960B148F06008E8
:104630008DED068A18EE903A03F100430793DDE909
:104640000634CDE90234DDE9024511A845EC104BF2
:1046500001F05EF9119B03EB4303B64A82FB0312A0
:10466000DB17C3EBA2031193002200232046294647
:1046700001F06EF8002800F0BC8008F44063059358
:10468000B3F5806F0AD0B3F5406F40F03282119BD2
:10469000B34203DA13F1040F80F22B821198B0F5C4
:1046A0009A7F40F0C28053EC1A2B2046294600F036
:1046B0004BFFCDE90201DDE902450022002320463F
:1046C000294601F045F8002848D145EC104B01F08F
:1046D000FDF8002840F0B5800022974B204629467F
:1046E00001F050F8C0B1119B03F10109CDF8089019
:1046F0000022914B2046294600F026FF04460D4635
:1047000009F1010900228C4B01F03CF80028EDD1A1
:10471000029B1193CDE90245DDE902450022874B5A
:104720002046294601F068F8C0B1119B03F1FF391A
:10473000CDF808900022804B2046294600F068FE04
:1047400004460D4609F1FF3900227C4B01F054F874
:104750000028EDD1029B1193CDE90245002E00F017
:104760006684059BB3F5406F00F088807042FFF7C8
:10477000A1FA51EC100B53EC192B00F049FEDDE9C6
:10478000022300F01FFD04460D46CDE9024500223C
:10479000694B00F0F7FF002800F06F8400F05FBC69
:1047A0000022002351EC180B01F026F868B918F428
:1047B000005F634B634A08BF134618F0200F08BF21
:1047C0000133029328F48073D7E518F4005F5E4A42
:1047D0005E4B18BF13460293F4E718F4005F5C4881
:1047E0005C4B08BF184628F48073CBE5119B01335E
:1047F000119311980130FFF75DFA53EC102B20460E
:10480000294600F0DDFF0028F0D102E0119B013BBA
:1048100011931198FFF74EFA53EC102B20462946BE
:1048200000F0EAFF0028F1D127E74042FFF742FA03
:1048300053EC102B2046294600F0EAFDCDE9020199
:1048400039E7002200232046294600F0D5FF68B949
:1048500018F4005F3A4B3B4A08BF134618F0200F8C
:1048600008BF0133029328F4807386E518F4005FD3
:10487000354A364B18BF13460293F4E706F1FF3969
:10488000C6F10100FFF716FA51EC100B53EC192B8F
:1048900000F0BEFDDDE9022300F094FC04460D4665
:1048A000CDE902450022244B00F06CFF08B14E46D2
:1048B000D5E34E46DEE3102EA8BF1026DDE9024503
:1048C0003046FFF7F7F953EC102B2046294600F04D
