:020000021000EC
:10C000000000012089C40100C9C40100CBC40100A3
:10C01000CDC40100CFC40100D1C401000000000064
:10C02000000000000000000000000000D3C4010078
:10C03000D5C4010000000000D7C40100D9C401002C
:10C04000DBC40100DBC40100DBC40100DBC4010070
:10C05000DBC40100DBC40100DBC40100DBC4010060
:10C06000DBC40100DBC40100DBC40100DBC4010050
:10C07000DBC40100DBC40100DBC40100DBC4010040
:10C08000DBC40100DBC40100DBC40100DBC4010030
:10C09000DBC40100DBC4010089C90100DBC401006D
:10C0A000DBC40100DBC40100DBC40100DBC4010010
:10C0B000DBC40100DBC40100000000000000000040
:10C0C000DBC40100DBC40100DBC40100DBC40100F0
:10C0D000DBC40100DBC40100DBC401000000000080
:10C0E0000000000000000000000000000000000050
:10C0F0000000000000000000000000000000000040
:10C10000000000000000000000000000000000002F
:10C11000000000000000000000000000000000001F
:10C400000348044B834202D0034B03B118477047E3
:10C410003CA100203CA10020000000000548064986
:10C420000B1AD90F01EBA301491002D0034B03B142
:10C43000184770473CA100203CA1002000000000EC
:10C4400010B5064C237843B9FFF7DAFF044B13B15C
:10C450000448AFF300800123237010BD3CA10020ED
:10C460000000000068D4010008B5044B1BB104496A
:10C470000448AFF30080BDE80840CFE700000000AB
:10C4800040A1002068D401000B490C4A0C4B9B1AB8
:10C4900003DD043BC858D050FBDC0949094A0020A1
:10C4A000521A02DD043A8850FCDC00F047F800F034
:10C4B000E3FA00F069F900006CD40100A8980020AC
:10C4C0003CA1002000A20020FEE7FEE7FEE7FEE719
:10C4D000FEE7FEE7FEE7FEE7FEE7FEE74FF070430C
:10C4E00093F8E02F062A0CD1D3F8E42F120708D1D5
:10C4F000D3F8E80F00F0F000A0F1300358425841A3
:10C500007047002070474FF0704393F8E02F062AE1
:10C5100010D1D3F8E42F12070CD1D3F8E80F00F0B4
:10C52000F003302B08D000F0E000A0F140035842A7
:10C5300058417047002070470120704708B5FFF749
:10C54000CDFF10B14C4B4D4A5A67FFF7DCFF48B1A5
:10C550004FF080534FF08042D3F84432C3F342335C
:10C56000C2F83C35FFF7BAFF30B1454AD2F8FC308B
:10C5700023F08073C2F8FC30FFF7C5FF40B14FF0E5
:10C5800080430022C3F80C21C3F81021C3F83825DA
:10C59000FFF7A4FF20B14FF080430322C3F8A0258A
:10C5A000FFF79CFF60B1374B0522C3F8102601222C
:10C5B000C3F888260022C3F818263F22C3F81426A1
:10C5C0004FF0704393F8E02F062A50D1D3F8E42FB0
:10C5D00012074CD1D3F8E83F03F0F003502B46D1BB
:10C5E0004FF08052284BD2F80414C3F82015D2F82B
:10C5F0000814C3F82415D2F80C14C3F82815D2F87F
:10C600001014C3F82C15D2F81414C3F83015D2F84E
:10C610001814C3F83415D2F81C14C3F84015D2F816
:10C620002014C3F84415D2F82414C3F84815D2F8DE
:10C630002814C3F84C15D2F82C14C3F85015D2F8AE
:10C640003014C3F85415D2F83414C3F86015D2F876
:10C650003814C3F86415D2F83C14C3F86815D2F83E
:10C660004014C3F86C15D2F84424C3F87025074B66
:10C67000074A1A6008BD00BF00C007400DF0ADBA00
:10C6800000ED00E00050004000C00040A8980020ED
:10C690000090D00348DF704770DF704772DF70474B
:10C6A00073DF704777DF70477FB5144B1449186804
:10C6B000009000234822684600F030F908B100F0ED
:10C6C0009FF9012101AA084600F070F90123ADF895
:10C6D000043008B100F094F90A4800F079F908B183
:10C6E00000F08EF901A800F07DF908B100F088F99A
:10C6F0000420FFF7D7FF07B05DF804FB60D401000A
:10C7000058A100201824002007B50368CDF8013097
:10C7100069468388ADF8053000208DF80000FFF7EA
:10C72000BBFF08B100F06CF903B05DF804FB08B57D
:10C7300000231A46FFF7B2FF18B1BDE8084000F029
:10C740005FB908BD10B586B01822002104466846BE
:10C7500000F070FC4FF47A700323444340F27120E0
:10C7600094FBF0F468468DF80030ADF81040FFF708
:10C7700097FF06B010BD08B5FFF78CFF18B1BDE8F4
:10C78000084000F03DB908BD13B50B4801AA694641
:10C7900000F03CF80446FFF787FF0098FFF7B4FF6E
:10C7A00001982146FFF7C3FF41F28830FFF7CAFF27
:10C7B000FFF7E1FFFCE700BFAC9800200278074BD1
:10C7C00062F03F025A7142781A718278DA70C27848
:10C7D0009A7002795A7042791A707047C89800208E
:10C7E00010B5084A831D00F11A0153F8044B42F8B2
:10C7F000044B8B42F9D11B8813800378024A9B09B2
:10C80000537710BDD5980020CE98002038B50D463E
:10C810001446FFF7D3FFFFF7E3FF062000F050F9BF
:10C820000F4A286003461068928818609A801F207B
:10C8300000F046F90B4A2060034602F11805106823
:10C8400051681C4603C40832AA422346F7D1106837
:10C85000206091889279A271A1801F2038BD00BF0D
:10C86000C8980020CE98002052DF704710DF704734
:10C8700060DF704761DF704708B500F0CFF808BD92
:10C88000214B1B782DE9F34703F0FF05002B37D030
:10C890001E4E1F4F33683A68B3FA83F4640952B3EB
:10C8A00001A8FFF7E1FF052828D0C8B100F0A8F8DB
:10C8B000002CF5D1DFF85C80DFF85C90D9F800A09F
:10C8C000B8F80030ADF8043001A95046FFF7D2FFA8
:10C8D00005280DD040B100F093F8002CEED1DFE731
:10C8E0003B6801989847E3E7336850469847F4E778
:10C8F00034B92C46D4E71BB12C46DBE7002CFBD027
:10C9000002B0BDE8F08700BFACA10020A4A10020C8
:10C91000B0A10020A0A10020B4A1002010B5F9B161
:10C920008C071DD1114C216011490A80114A12490E
:10C930001360FFF79BFF70B9104B01221A70104A69
:10C9400092F816335B060DD50E4B996821B11A6823
:10C9500042F480021A6010BD4FF480031360FAE7BE
:10C960000720F8E742F20200F5E700BFB4A100207B
:10C97000A0A10020A8A1002079C80100ACA100203E
:10C9800000E100E0B8A1002008B5074B1B682BB1FF
:10C99000984738B1BDE8084000F032B8BDE808401B
:10C9A000FFF76EBF08BD00BFA8A1002038B5134631
:10C9B00004460D4614220021184600F03BFB0122DC
:10C9C00002800572447204B18272002038BD0000FA
:10C9D00082B0034B0193019B002002B0704700BF5F
:10C9E000A898002007B5054B0193019B0093694669
:10C9F000FFF73EFF03B05DF804FB00BFA8980020DE
:10CA00001FB50021CDE9021001AA44F20100ADF8E2
:10CA1000041000F003F805B05DF804FBBFF34F8F7E
:10CA20000549064BCA6802F4E0621343CB60BFF3CA
:10CA30004F8F00BFFDE700BF00ED00E00400FA05E6
:10CA4000002301461A46184600F05CBB38B5084B77
:10CA5000084D5B1B9C1007D0043B1D44013C55F85E
:10CA600004399847002CF9D1BDE8384000F0F2BCF9
:10CA70003CA1002038A1002070B50D4E0D4D761B55
:10CA8000B61006D0002455F8043B01349847A6425E
:10CA9000F9D1094E094D761B00F0D6FCB61006D030
:10CAA000002455F8043B01349847A642F9D170BDE3
:10CAB00030A1002030A1002038A1002030A10020AA
:10CAC000024B0146186800F00BB800BFF098002038
:10CAD000024B0146186800F0A3BB00BFF09800208D
:10CAE0002DE9F04F01F10B06162E83B0044624D831
:10CAF000102900F2BA8000F0EFFA10261822022066
:10CB0000B74F3A44A2F1080153688B4200F0BA8053
:10CB10005A68D96822F003021A449D68E9608D6062
:10CB2000516841F001012046516003F1080500F011
:10CB3000D5FA284603B0BDE8F08F36F0070600F1BD
:10CB40009480B14200F2918000F0C6FAB6F5FC7F05
:10CB5000C0F09681730A00F08F80042B00F26B8185
:10CB6000B30903F1390003F1380CC3009C4F3B4477
:10CB7000A3F108055B689D4206D10CE0002980F214
:10CB80002B81DB689D4206D05A6822F00302911B7C
:10CB90000F29F3DD60463D69DFF848C265457CD06A
:10CBA0006A6822F00302931B0F2B00F37781002B9E
:10CBB000C7E904CC80F26881B2F5007F80F016816D
:10CBC000D308796801334FEA521E012202FA0EF2AD
:10CBD0000A4357F833E0C5F808E007EBC30108390A
:10CBE000E9607A6047F83350CEF80C508310012189
:10CBF0009940914257D8114206D120F003004900D4
:10CC0000114200F10400FAD007EBC0094D468646F8
:10CC1000D5F80C80454508D119E1002B80F2208120
:10CC2000D8F80C80454500F01281D8F8042022F095
:10CC30000302931B0F2BF0DD2046D8E9025408EBCA
:10CC4000060146F00106C8F80460EC60A56043F0F8
:10CC50000104C7E90411C1E902CC4C6048F8023074
:10CC600000F03CFA08F1080502E00C2323600025DF
:10CC7000284603B0BDE8F08F4FF4007340204FF01A
:10CC80003F0C73E7D3689A4208BF02307FF440AF8D
:10CC90003D69DFF850C1654582D17A688310012172
:10CCA00099409142A7D9BD686B6823F003084645B7
:10CCB00003D8A8EB06030F2B7EDCDFF82C91D7F806
:10CCC0000824D9F800300132334405EB080A00F09B
:10CCD0002F8103F580530F3323F47F6B2BF00F0B61
:10CCE0005946204600F0FCF9411C024600F0EF8056
:10CCF000824500F2EA80D9F804105944C9F80410BA
:10CD00000B4600F04B81D7F8081401311BBFA2EB92
:10CD10000A0A5344C7F80824C9F8043012F007037C
:10CD200000F01281C3F108010A44C3F58051934415
:10CD30000831A1EB0B01C1F30B0A514620460192C9
:10CD4000009300F0CDF9421CDDE9003200F04B8188
:10CD5000831A03EB0A0BD9F80400BA604BF0010305
:10CD60000AEB0001BD425360C9F8041000F02281B3
:10CD7000B8F10F0F40F220816B68A8F10C0020F091
:10CD8000070003F0010303436B604FF0050C2B1801
:10CD90000F28C3E901CC00F22D8153681546D9F85C
:10CDA0002C208A42D9F8302038BFC9F82C108A428A
:10CDB00038BFC9F830108CE0AA1943F0010346F0DF
:10CDC00001066E602046BA60536000F087F90835AE
:10CDD000284603B0BDE8F08FD9681A449DE600BF2D
:10CDE000209D0020289D0020C4A10020B2F5206FC6
:10CDF0004FEA522363D3142B00F2B88003F15C0195
:10CE0000C9005B3307EB010E7958AEF1080E8E4571
:10CE100000F091804B6823F00303934202D98968A4
:10CE20008E45F7D1D1F80CE07A68C5E9021ECEF83C
:10CE30000850CD60DAE6142B59D9542B00F29E80AD
:10CE4000330B03F16F0003F16E0CC3008EE60EF19D
:10CE5000010E1EF0030F05F108057FF4D9AE51E075
:10CE6000424445465368D8F80C1043F00103536020
:10CE700055F8083F2046D9608B6000F02FF9F7E69F
:10CE8000F00806F108023BE62A442046536843F0C6
:10CE900001035360083500F021F9E9E6A91920469D
:10CEA00046F0010643F001046E60C7E90411C1E9D0
:10CEB00002CC4C60AB5000F011F90835D8E693096C
:10CEC00003F13901C90038339CE7BD4260D0BD6829
:10CED0006B6823F0030B5E45ABEB060302D80F2B08
:10CEE0003FF76AAF204600F0F9F80025C0E603F1ED
:10CEF0005C0003F15B0CC30038E659F808394B4578
:10CF000040F0968010F0030F00F1FF30F5D17B6800
:10CF100023EA01037B60490099423FF6C4AE19B988
:10CF2000C1E649000EF1040E1942FAD070466BE6D4
:10CF300003F1100BD4E69A104FF001087B6808FA51
:10CF400002F21A437A6070E702EB0B014942C1F327
:10CF50000B0A514620460193009200F0C1F8431C91
:10CF6000DDE900237FF4F4AE9A46F4E6542B26D88C
:10CF7000130B03F16F01C9006E3343E7B3F5AA7FCA
:10CF800026D8F30B03F1780003F1770CC300EDE52D
:10CF9000D9F804305B44C9F80430B4E6CAF30B0096
:10CFA00000287FF4B0AEBD6808EB0B0343F001032B
:10CFB0006B60F4E61546F2E60123536092E7B3F5A1
:10CFC000AA7F21D8D30B03F17801C900773319E781
:10CFD00040F25452934221D8B30C03F17D0003F187
:10CFE0007C0CC300C2E5083B9B44ABEB020B4FF04B
:10CFF000000AB0E605F10801204600F011F9BD680D
:10D00000D9F804106B68CAE640F254518B420BD831
:10D01000930C03F17D01C9007C33F3E64FF47E737A
:10D020007F204FF07E0CA1E54FF47E717E23E9E670
:10D030007B6870E7830730B548D0541E002A3FD084
:10D04000CAB2034601E0013C3AD303F8012B9D0725
:10D05000F9D1032C2DD9CDB245EA05250F2C45EA8F
:10D06000054536D9A4F1100222F00F0C03F1200E71
:10D07000E6444FEA121C03F1100242E9045542E96A
:10D08000025510327245F8D10CF1010214F00C0F68
:10D0900003EB021204F00F0C13D0ACF1040323F0E5
:10D0A00003030433134442F8045B9342FBD10CF0B6
:10D0B00003042CB1CAB21C4403F8012B9C42FBD1DF
:10D0C00030BD64461346002CF4D1F9E703461446FC
:10D0D000BFE71A46A446E0E7704700BF704700BFAD
:10D0E00038B5074D0022044608462A6000F09EF934
:10D0F000431C00D038BD2B68002BFBD0236038BD0B
:10D10000F8A1002070B4184C2568D5F848411CB32C
:10D1100065681F2D25DC38B9AB1C0135656044F806
:10D120002310002070BC704704EB850C0228CCF85B
:10D130008820D4F888614FF0010202FA05F246EA2D
:10D140000206C4F88861CCF80831E5D1D4F88C31F6
:10D150001343C4F88C31DFE705F5A674C5F84841E0
:10D16000D6E74FF0FF30DDE764D40100024B13B186
:10D170000248FFF765BC7047000000004DCA01007F
:10D18000F8B5244F0C460646FFF7A6FFBA68556867
:10D19000C4F57E630F3325F003052B4423F47F632E
:10D1A00023F00F03A3F58054B4F5805F07DB002163
:10D1B0003046FFF795FFBB682B44984204D03046B9
:10D1C000FFF78CFF0020F8BD61423046FFF788FF73
:10D1D00001300DD0104ABB682D1B45F001055D6084
:10D1E000136830461B1B1360FFF778FF0120F8BD62
:10D1F00000213046FFF774FFBA68831A0F2BDEDD7B
:10D2000043F001035360054B03491B68C01A0860D3
:10D21000D5E700BF209D0020C8A1002028A1002044
:10D22000002961D0F8B50C460646FFF755FF54F8C3
:10D23000042C7B4FA4F1080522F0010105EB010C41
:10D24000B868DCF80430604523F0030300F08B80FD
:10D25000D207CCF8043032D454F8082CAD1A11445B
:10D26000AA6807F1080082426AD00CEB0304D4F8E4
:10D2700004E0EC68D4601EF0010FA26000F097801B
:10D2800041F001036B60CCF80010B1F5007F35D29E
:10D290007A68CB0848090121013381401143796044
:10D2A00007EBC30257F83310083AC5E9021247F8F2
:10D2B0003350CD603046BDE8F840FFF70FBF0CEBB0
:10D2C00003025268D00710D4194407F10800DCF8B3
:10D2D0000830834273D0DCF80C20DA60936041F0B0
:10D2E00001036B606950D0E7704741F00103B1F56D
:10D2F000007F44F8043CCCF80010C9D3B1F5206F8E
:10D300004FEA512348D28B0903F1390003F1380267
:10D31000C300F818FB580838984259D05A6822F0D0
:10D3200003028A4202D99B689842F7D1D868C5E9BE
:10D3300002308560DD603046BDE8F840FFF7CEBEC4
:10D340000CEB03025268D20763D40B44DCE90212EF
:10D35000CA60916043F001026A603046EB50BDE85C
:10D36000F840FFF7BBBE0B44D10707D454F8082C94
:10D37000AD1A1344D5E90212CA60916043F001026C
:10D380006A60284ABD6012689A4293D8264B30469C
:10D390001968FFF7F5FE8DE7142B0AD9542B1FD817
:10D3A0000B0B03F16F0003F16E02C300B1E71944E8
:10D3B0008DE703F15C0003F15B02C300A9E741F0D4
:10D3C0000103C7E90455C5E902006B60695071E7C4
:10D3D00079689210012404FA02F20A437A60A6E7FF
:10D3E000B3F5AA7F06D8CB0B03F1780003F17702DF
:10D3F000C3008EE740F25452934206D88B0C03F1DF
:10D400007D0003F17C02C30083E74FF47E737E222C
:10D410007FE741F001036B60CCF800104AE700BFE2
:10D42000209D00202CA10020C4A10020044A054911
:10D430001368002B08BF0B4618441060184670474D
:10D44000FCA1002000A20020F8B500BFF8BC08BC79
:10D450009E467047F8B500BFF8BC08BC9E467047B2
:0CD4600000100201F898002000000000FD
:10D46C000090D0034F46464C494E4546494E4449E0
:10D47C004E475055424C49434B455948455245211E
:10D48C00FFBBCCDDEEFF1EFF4C00121900000000AC
:10D49C000000000000000000000000000000000080
:10D4AC000000000000000000F898002000000000C0
:10D4BC0000000000E49B00204C9C0020B49C002049
:10D4CC000000000000000000000000000000000050
:10D4DC000000000000000000000000000000000040
:10D4EC000000000000000000000000000000000030
:10D4FC000000000000000000000000000000000020
:10D50C00000000000000000000000000000000000F
:10D51C0000000000000000000000000000000000FF
:10D52C0000000000000000000000000000000000EF
:10D53C0000000000000000000000000000000000DF
:10D54C0000000000000000000000000000000000CF
:10D55C0000000000000000000100000000000000BE
:10D56C000E33CDAB34126DE6ECDE05000B00000083
:10D57C00000000000000000000000000000000009F
:10D58C00000000000000000000000000000000008F
:10D59C00000000000000000000000000000000007F
:10D5AC00000000000000000000000000000000006F
:10D8EC00209D0020209D0020289D0020289D0020A8
:10D8FC00309D0020309D0020389D0020389D002058
:10D90C00409D0020409D0020489D0020489D002007
:10D91C00509D0020509D0020589D0020589D0020B7
:10D92C00609D0020609D0020689D0020689D002067
:10D93C00709D0020709D0020789D0020789D002017
:10D94C00809D0020809D0020889D0020889D0020C7
:10D95C00909D0020909D0020989D0020989D002077
:10D96C00A09D0020A09D0020A89D0020A89D002027
:10D97C00B09D0020B09D0020B89D0020B89D0020D7
:10D98C00C09D0020C09D0020C89D0020C89D002087
:10D99C00D09D0020D09D0020D89D0020D89D002037
:10D9AC00E09D0020E09D0020E89D0020E89D0020E7
:10D9BC00F09D0020F09D0020F89D0020F89D002097
:10D9CC00009E0020009E0020089E0020089E002043
:10D9DC00109E0020109E0020189E0020189E0020F3
:10D9EC00209E0020209E0020289E0020289E0020A3
:10D9FC00309E0020309E0020389E0020389E002053
:10DA0C00409E0020409E0020489E0020489E002002
:10DA1C00509E0020509E0020589E0020589E0020B2
:10DA2C00609E0020609E0020689E0020689E002062
:10DA3C00709E0020709E0020789E0020789E002012
:10DA4C00809E0020809E0020889E0020889E0020C2
:10DA5C00909E0020909E0020989E0020989E002072
:10DA6C00A09E0020A09E0020A89E0020A89E002022
:10DA7C00B09E0020B09E0020B89E0020B89E0020D2
:10DA8C00C09E0020C09E0020C89E0020C89E002082
:10DA9C00D09E0020D09E0020D89E0020D89E002032
:10DAAC00E09E0020E09E0020E89E0020E89E0020E2
:10DABC00F09E0020F09E0020F89E0020F89E002092
:10DACC00009F0020009F0020089F0020089F00203E
:10DADC00109F0020109F0020189F0020189F0020EE
:10DAEC00209F0020209F0020289F0020289F00209E
:10DAFC00309F0020309F0020389F0020389F00204E
:10DB0C00409F0020409F0020489F0020489F0020FD
:10DB1C00509F0020509F0020589F0020589F0020AD
:10DB2C00609F0020609F0020689F0020689F00205D
:10DB3C00709F0020709F0020789F0020789F00200D
:10DB4C00809F0020809F0020889F0020889F0020BD
:10DB5C00909F0020909F0020989F0020989F00206D
:10DB6C00A09F0020A09F0020A89F0020A89F00201D
:10DB7C00B09F0020B09F0020B89F0020B89F0020CD
:10DB8C00C09F0020C09F0020C89F0020C89F00207D
:10DB9C00D09F0020D09F0020D89F0020D89F00202D
:10DBAC00E09F0020E09F0020E89F0020E89F0020DD
:10DBBC00F09F0020F09F0020F89F0020F89F00208D
:10DBCC0000A0002000A0002008A0002008A0002039
:10DBDC0010A0002010A0002018A0002018A00020E9
:10DBEC0020A0002020A0002028A0002028A0002099
:10DBFC0030A0002030A0002038A0002038A0002049
:10DC0C0040A0002040A0002048A0002048A00020F8
:10DC1C0050A0002050A0002058A0002058A00020A8
:10DC2C0060A0002060A0002068A0002068A0002058
:10DC3C0070A0002070A0002078A0002078A0002008
:10DC4C0080A0002080A0002088A0002088A00020B8
:10DC5C0090A0002090A0002098A0002098A0002068
:10DC6C00A0A00020A0A00020A8A00020A8A0002018
:10DC7C00B0A00020B0A00020B8A00020B8A00020C8
:10DC8C00C0A00020C0A00020C8A00020C8A0002078
:10DC9C00D0A00020D0A00020D8A00020D8A0002028
:10DCAC00E0A00020E0A00020E8A00020E8A00020D8
:10DCBC00F0A00020F0A00020F8A00020F8A0002088
:10DCCC0000A1002000A1002008A1002008A1002034
:10DCDC0010A1002010A1002018A1002018A10020E4
:10DCEC00FFFFFFFF000002006DD1010069C40100BD
:04DCFC0041C401001E
:040000031000C4899C
:00000001FF
